:020000040800F2
:1000000048500024AD030008455F0008C9040008FB
:10001000C9040008E715000841730008000000004B
:10002000000000000000000000000000356600082D
:10003000211A0008000000001704000837660008B5
:10004000C7030008C7030008C7030008C703000868
:10005000C7030008C7030008231A0008751A000820
:10006000891A00089D1A0008B11A0008C703000881
:10007000C7030008C7030008C7030008C703000838
:10008000C7030008C7030008C7030008C703000828
:10009000C7030008C7030008C7030008C51A000803
:1000A000C7030008C7030008C7030008C703000808
:1000B000C7030008C7030008C7030008C7030008F8
:1000C000C7030008C7030008C7030008C7030008E8
:1000D000C7030008C7030008C7030008C7030008D8
:1000E000371A0008C703000800000000C703000813
:1000F000C7030008C7030008C7030008C7030008B8
:10010000C7030008D962000861680008C703000837
:10011000E56C0008C7030008C7030008C703000810
:10012000C7030008C7030008C7030008C703000887
:10013000C7030008C7030008C7030008C703000877
:1001400000000000000000000000000000000000AF
:10015000C7030008C7030008C7030008C703000857
:10016000C7030008C7030008C7030008C703000847
:10017000C7030008C7030008C70300080000000009
:10018000C7030008C7030008C7030008C703000827
:10019000C7030008C7030008C7030008C703000817
:1001A000C7030008C7030008C7030008C703000807
:1001B000C7030008C7030008C7030008C7030008F7
:1001C000C7030008C7030008C7030008C7030008E7
:1001D000C7030008C7030008C7030008C7030008D7
:1001E000C7030008C7030008C7030008C7030008C7
:1001F000C7030008C7030008C7030008C7030008B7
:10020000C7030008C7030008C7030008C7030008A6
:10021000C7030008C7030008C7030008C703000896
:10022000C7030008C7030008C70300080000000058
:10023000C7030008C703000800000000C703000848
:10024000C7030008C7030008C7030008C703000866
:10025000C7030008C7030008C7030008C703000856
:10026000C7030008C7030008C7030008C703000846
:10027000C7030008C70300082D5F00080000000046
:10028000C7030008C7030008C703000800000000F8
:1002900000000000C703000800F002F800F06EF84C
:1002A0000AA090E8000C82448344AAF10107DA45D1
:1002B00001D100F063F8AFF2090EBAE80F0013F0B5
:1002C000010F18BFFB1A43F0010318475CAC020092
:1002D0007CAC02000A444FF0000C10F8013B13F014
:1002E000070408BF10F8014B1D1108BF10F8015B8F
:1002F000641E05D010F8016B641E01F8016BF9D182
:1003000013F0080F1EBF10F8014BAD1C0C1B09D1D8
:100310006D1E58BF01F801CBFAD505E014F8016B4A
:1003200001F8016B6D1EF9D59142D6D370470000DC
:100330000023002400250026103A28BF78C1FBD8EE
:10034000520728BF30C148BF0B607047732900F0C7
:100350005284002070471FB519F0D0FF00F088FFCD
:1003600004000020002119F0B3FF401C606000F081
:100370007FFC1FBD10B500F0E4FC10BD00F053FF82
:100380001146FFF7E8FF01F029F901F093F803B4F3
:10039000FFF7F0FF03BC07F05DFB0000002804D06E
:1003A00090FAA0F0B0FA80F0401C704709488047EE
:1003B00009480047FEE7FEE7FEE7FEE7FEE7FEE747
:1003C000FEE7FEE7FEE7FEE704480549034A054B62
:1003D000704700007D67000899020008484000242B
:1003E0004850002448400024EFF3108072B6704754
:1003F00080F310887047424A1368012B04D04FF0F5
:10040000010313603F4A10603F4A11603F484FF0BC
:10041000805101607047EFF3108272B6384801686E
:1004200051B34FF0000101603648016891B1EFF31C
:1004300009811EF0100F08BF21ED108B21E9F00F8C
:100440004FF000041EF0100F08BF012441F8044DC6
:10045000006801602C490968096808C9B1E8F00F13
:10046000002B18BFB1EC108B81F309884EF0100EF1
:10047000002B18BF2EF0100E82F310884EF0040EE1
:10048000704721490860EFF3148222F0040282F3DE
:1004900014881C494FF00000086019494FF0010012
:1004A00008601B481B49D0F8002041EA02010160A6
:1004B00016484FF08051016017480068006880F3CB
:1004C000088861B662B670471EF0040F0CBFEFF3E8
:1004D0000880EFF3098020E9F00F40F804ED40F8C0
:1004E00004ED1EF0040F0CBF80F3088880F3098828
:1004F00000B512F0D9FD5DF804EB4EF0040E704724
:1005000028010024200100242401002404ED00E03F
:1005100020ED00E00000FFFF08ED00E070477047AD
:10052000704753EA020C00F069802DE9F04B4FF060
:100530000006002B1FBFB3FA83F503FA05F424FA73
:1005400005F65E4012BF1643B2FA82F502FA05F4D0
:10055000C5F120051EBF22FA05FC44EA0C04203533
:1005600056EA044C4FEA144418BF641C4FF00008CC
:100570004FF00009904271EB030C39D3002919BFE9
:10058000B1FA81F701FA07F6B0FA80F700FA07F638
:10059000C7F120071EBF20FA07FC46EA0C062037E9
:1005A000B6FBF4FCA7EB0507103F07F01F0BCBF1E0
:1005B00020060CFA0BFB2CFA06F644BFB3460026C5
:1005C000202FA4BF5E464FF0000B5BEA060C08BF6D
:1005D0004FF0010B19EB0B09ABFB027C48EB060853
:1005E000C01B06FB02CC0BFB03CC71EB0C01C1E77B
:1005F0000B46024641464846BDE8F08B13B54FF026
:1006000000004FF00001AFF30080BDE81C407047D0
:1006100010B54C1084EA530404D54042C1F10001E6
:1006200038BF491E1B4204D55242C3F1000338BFF4
:100630005B1EFFF776FF14F0804F04D04042C1F1FB
:10064000000138BF491E14F0004F04D05242C3F1DC
:10065000000338BF5B1E10BD0FB41CB50C0007AA09
:10066000009001D02044401E074B7B446946019016
:10067000069800F08EFA002C03D06946002000F0A6
:100680009BFA1CBC5DF814FB550500002DE9F041F8
:100690000E460446002020622046E168884730B3B9
:1006A000252805D0D4E901219047206A401CF2E7B3
:1006B000E168204600278847050018D0A5F14100D1
:1006C000192802D820354FF40067324629462046C3
:1006D0002760FFF73BFE40B1012804D0F61D26F04D
:1006E00007060836D8E7361DD6E72846DAE7206A37
:1006F000BDE8F08170B50C460546012A05D0287882
:10070000800600D5EA69002302E0012305E05B1CB6
:10071000934202D2E05C0028F9D1A869E618C01A19
:10072000A861286A184428622846AFF3008004E0D4
:10073000D5E9012114F8010B9047B442F8D32846BB
:10074000AFF3008070BD70B5064600F019FA04687A
:10075000054630460A22002100F051FA2C6070BD97
:100760000CF0FABC30B505460B462A4613F8014B8F
:1007700012F8010B08B1A042F8D01CB1002802D039
:100780006D1CF1E7284630BD40EA010310B59B0718
:100790000FD1042A0DD310C808C9121F9C42F8D0EB
:1007A00020BA19BA884201D9012010BD4FF0FF309C
:1007B00010BD1AB1D30703D0521C07E0002010BDB2
:1007C00010F8013B11F8014B1B1B07D110F8013B3E
:1007D00011F8014B1B1B01D1921EF1D1184610BD1F
:1007E00040EA0103024630B59B0710D14FF00134B7
:1007F00000E008C208C91D1B9D4315EAC41FF8D0BC
:1008000013F0FF0102F8011B0DD01B0AF8E711F8E5
:10081000013B002B02F8013B05D011F8013B002BF6
:1008200002F8013BF3D130BD0022CBB210F8011B1E
:10083000994200D1421E0029F8D11046704710B5E8
:10084000431C02E010F8011B71B18107FAD14FF08F
:10085000013202C88C1A8C4314EAC211F9D0C01AB2
:100860000A0603D0C01E10BDC01A10BD0A0401D074
:10087000801E10BD0902FCD0401E10BD40EA0103DD
:1008800070B59B072ED14FF00136042A2AD308C831
:1008900010C99D1B9D43121F15EAC61517D0D8B26B
:1008A000E1B2401A50EA056110D198B2A1B2401AE3
:1008B00050EA05410AD123F07F4024F07F41401ADD
:1008C00050EA052102D1180EA0EB146070BDA342BE
:1008D000DBD018BA21BA884201D9012070BD4FF08F
:1008E000FF3070BD0AB9002070BD10F8013B11F84F
:1008F000014B63B1A3420AD1521E08D010F8013B4C
:1009000011F8014B1BB1A34201D1521EEDD1181BAE
:1009100070BD421E12F8013F002BFBD111F8013BC4
:10092000002B02F8013BF9D17047032A40F23080D6
:1009300010F0030C00F0158011F8013BBCF1020F20
:10094000624498BF11F801CB00F8013B38BF11F8A1
:10095000013BA2F1040298BF00F801CB38BF00F8B8
:10096000013B11F0030300F02580083AC0F0088035
:1009700051F8043B083A51F804CBA0E80810F5E719
:10098000121D5CBF51F8043B40F8043BAFF30080FC
:10099000D20724BF11F8013B11F801CB48BF11F871
:1009A000012B24BF00F8013B00F801CB48BF00F841
:1009B000012B704710B5203AC0F00B80B1E81850F9
:1009C000203AA0E81850B1E81850A0E81850BFF439
:1009D000F5AF5FEA027C24BFB1E81850A0E81850D8
:1009E00044BF18C918C0BDE810405FEA827C24BF2C
:1009F00051F8043B40F8043B08BF7047D20728BFBA
:100A000031F8023B48BF11F8012B28BF20F8023B08
:100A100048BF00F8012B704702F0FF0343EA0322AE
:100A200042EA024200F002B84FF000020429C0F08E
:100A3000128010F0030C00F01B80CCF1040CBCF110
:100A4000020F18BF00F8012BA8BF20F8022BA1EB62
:100A50000C0100F00DB85FEAC17C24BF00F8012B47
:100A600000F8012B48BF00F8012B70474FF000023F
:100A700000B5134694469646203922BFA0E80C5094
:100A8000A0E80C50B1F12001BFF4F7AF090728BF6F
:100A9000A0E80C5048BF0CC05DF804EB890028BFEB
:100AA00040F8042B08BF704748BF20F8022B11F014
:100AB000804F18BF00F8012B704710B5044610F0A6
:100AC000030F08BF11F0030F40F015804FF0013EF7
:100AD000121FC0F20E8051F8043BA3EB0E0C2CEA5F
:100AE000030C1CEACE1C08BF40F8043BF0D0A1F177
:100AF000040102F10402521E08DB11F8013B002B35
:100B000000F8013BF7D11146FFF78EFF204610BDDC
:100B10004FF0013C50F8042B51F8043B9A4215D198
:100B2000A2EB0C03934313EACC130BD150F8042B24
:100B300051F8043B9A4209D1A2EB0C03934313EA08
:100B4000CC13E7D04FF00000704700BFD01A01BAB5
:100B5000B1FA81F101F0180122FA01F0CB40C1F1A4
:100B60002001DBB2C0B2C01A2CFA01F3D11A9143B2
:100B700011EAC311E6D17047704770477047000013
:100B800000487047E43F002401694A1C026108786C
:100B9000704700B58FB0CDE90131002105910549BD
:100BA0007944CDE9031011466846FFF76FFD0FB099
:100BB00000BD0000E5FFFFFF0A6802F8010B0A60B4
:100BC0007047D1E900239A4202D2531C0B60107087
:100BD000704710B5436913B1AFF3008001E0FFF730
:100BE00089FD012010BD127800F124010A70002255
:100BF0004A700122EDE711684FF0FF32E9E72DE975
:100C0000F04791460F4680460446002614F8015BE3
:100C10002DB100F0CDF80068405DC007F6D12B2D56
:100C200002D02D2D18D0641E4A463946204600F0C9
:100C3000C7F827B13968A14201D1C7F800804FF049
:100C4000020471050BD54042002803DDFFF798FF31
:100C50000460A007BDE8F08746F48066E4E700285A
:100C6000F8DAFFF78DFF04606FF00040F2E7000054
:100C700010B542485421FFF7F9FE41485421FFF7CF
:100C8000F5FE40485421FFF7F1FE3F493B483C4AFE
:100C90003F4B08603D490A603A491960531C03659F
:100CA000481C1065012008653B48344A39A1784446
:100CB00000F016FA20B9384878440A3800F0ACFA47
:100CC00037482F4A35A1784400F00AFA20B9344851
:100CD00078440A3800F0A0FA32482A4A2FA1784412
:100CE00000F0FEF920B92F4878440A3800F094FA51
:100CF00040232248DC000021224600F0CDF920B13B
:100D000025487844543800F087FA1D48224640238D
:100D1000002100F0C1F920B121487844543800F096
:100D20007BFA184822461023002100F0B5F900286C
:100D300006D01C487844BDE81040563800F06CBA24
:100D400010BD104870B5006D20F001040B4800F094
:100D50003DFA0B4800F03AFA0A4800F037FA09E089
:100D6000206D20F00105204600F030FA20460CF0FE
:100D70008FFC2C46002CF3D170BD0000E83E00240F
:100D80003C3F0024903F00245004002454040024DD
:100D90005804002472000000529002007700000006
:100DA000409002002F90020000487047E43F00246A
:100DB00010B500F05DFA001D10BD00BF15950100D3
:100DC0002DE9F05F824615468B4600270AF10104A3
:100DD000B9460078302801D09DB113E014F8010B1A
:100DE0000127782803D0582801D045B10AE00DB179
:100DF000102D07D1002714F8010B102502E008255B
:100E000000E00A250026B0460EE005FB080005FBC1
:100E100006F101271FFA80F801EB1046B6F5803F76
:100E200000D3B94614F8010B294600F025FA002832
:100E3000EBDABBF1000F05D00FB1641E00E05446A1
:100E4000CBF80040B9F1000F06D0FFF799FE022160
:100E50000160C81EBDE8F09F48EA0640FAE770B599
:100E60000D4601461446D36850692A4606F044FEF2
:100E7000002807DA411C07D0E16820F0004041F467
:100E80008041E160281A70BD204600F07FFA4FF0E3
:100E9000FF3070BDC1680022026021F4805141F032
:100EA000400111F4C06FC16001D0826070470269D7
:100EB0004168891AC269891A816070472DE9F04733
:100EC0000446C06840F48000E060010312D520F4BD
:100ED0000020E060810606D4E26A61688A4200D898
:100EE0000A46511A216040F40010E06094F8250091
:100EF000BDE8F08720F40010E060800602D52046AF
:100F000000F09BFAE06842F281014FF0FF390140A6
:100F1000012903D0204600F039FAB6E02168002606
:100F200000290ADAC94340F480502160C4E9026014
:100F30006068411C61600078DAE744F240010842D1
:100F40000CD020F4A04040F040002660E060216911
:100F50006068401AE169401AA06096E0216991B981
:100F6000C00310D4E0690EF059FB2061B0B1E06815
:100F700040F4006010F4407FE06002D140F48070E3
:100F8000E06020696060E068D4F814A0C1061AD55A
:100F9000C0030ED5204600F02DFA14E004F1240021
:100FA00020610120E061E06820F4407040F480603E
:100FB000E6E721696068401AA1690144504606F0DD
:100FC000B2FD0028A6DBE068C0032AD56168E06AAC
:100FD000884200D808462169451AE069471B1BD0A2
:100FE0002046D4F8188000F005FA08EB05015046B9
:100FF000C4F8188006F097FD00288BDBE06840F409
:101000000030E060000202D5A0692844A061E169D7
:101010002069C91B45180DE0204600F0EBF9E7698F
:10102000F5E725696168D4E90607491BE5620844CC
:101030006560A061E06820F0100010F4C06FE0600F
:1010400002D0204600F01AFAE06840F48050C4E96B
:101050000260000205D52069E06260606FF0010067
:1010600046E7224639462846FFF7F9FE411C0CD0D8
:101070002918E16258B1401E2060681C6060E06879
:1010800040F40030E060287832E7484630E7656099
:101090002046FFF7FFFEF8E770B5C468A50713D038
:1010A000650211D4B2F5807F09D0B2F5007F06D079
:1010B000B2F5806F08D1012300F1240106E05D1E26
:1010C0006FF07F46B54201D3012070BD0161C3615D
:1010D000416024F470611143C160002070BD0000C4
:1010E0002DE9F0410C4607461646104600F06EF812
:1010F0002078611C61280AD0722802D077283CD160
:1011000002E00125002405E00225042402E0082471
:1011100048F2020511F8010B2B2806D0622809D0ED
:1011200011F8010C74280AD00BE045F0030544F0D7
:101130000204EFE745F0040544F00104EAE744F057
:1011400010043846214606F099FC411C15D00021B8
:10115000316171604FF40071F560F16170612007D9
:1011600004D530460222002100F094F8306D40F0A2
:10117000010030653046BDE8F0810020FBE72DE935
:10118000F0410D460646104C206DC10704D04108C1
:1011900004D020F00104F7E722460EE054200EF0C0
:1011A0003DFA07000ED0206D47F00101084354219D
:1011B00020653846FFF75AFC3A4629463046BDE8D6
:1011C000F0418DE70020D6E7E83E00242DE9F04706
:1011D00004464FF000094FF0FF37C568D4E9048694
:1011E000A80707D0204600F005F9304606F02CFC91
:1011F000002802DA3846BDE8F087280502D54046C7
:101200000CF046FA4C212046FFF730FC206D20F010
:10121000010020654846EEE710B500F059F9BDE839
:10122000104000F050B97546FFF7BEFDAE46050010
:101230006946534620F00700854618B020B5FFF7F1
:10124000C3F8BDE820404FF000064FF000074FF014
:1012500000084FF0000B21F00701AC46ACE8C009D4
:10126000ACE8C009ACE8C009ACE8C0098D467047DD
:1012700000487047044000243A2800D2303820F05B
:101280002002412A01D3A2F13700884201D34FF056
:10129000FF3070472DE9F041044616460D46476978
:1012A000007B80072ED0384606F0E2FB50BB3EB3F1
:1012B000012E02D0022E25D104E0204600F054F980
:1012C00005441DE0384606F0C6FBE168002841F001
:1012D0001001E16005DA204600F058F80120BDE871
:1012E000F081C9030BD56268E16A914200D81146CA
:1012F000A26911442269891A814200DD0846054429
:10130000002D01DA0220EAE7E16A6068E2688142C2
:1013100006D29103E06203D522F4003141F01002BD
:10132000A6690027AE4213DCE16A814201D90B466F
:1013300000E0034603EB060C2369ACEB030CAC4561
:1013400006DD814201D98C4600E084469C4505D1EA
:10135000A760276042F02000A5620DE0AD1BE669A2
:10136000AE1B8142A66000D90846C01A281A206028
:101370005819606022F0200003490840E060002016
:1013800084F84870ABE70000BFCFD7FFC16821F4F5
:10139000001141F08001C16000218160016070474F
:1013A0002DE9F047814614460E464FF0FF3832488B
:1013B000D5685769054209D03846A16906F0B3FBE4
:1013C000002811DB2C48C0430540E5602B4632461F
:1013D0004946384606F0AFFBA16920F00042B21A38
:1013E00011440028A16103D02046FFF7CFFF4046FB
:1013F000BDE8F08770B504460569C06A6168884237
:1014000000D80846E16821F42011E160C90312D533
:10141000A84208D02246411B2846FFF7C1FF10B161
:101420004FF0FF3070BD0020E562C4E90150E06874
:1014300020F48030E060002070BD10B50446C06824
:1014400020F02000E060A16AA06988420DD020460B
:10145000FFF7D0FFE06820F4405040F01000E0605B
:10146000A06AA0612069E062606044F24001E06827
:101470008843E06010BD00001000020070B5054612
:1014800040F202260A4C0FE094F85000C00708D042
:10149000AC4206D0E06836EA000002D1204600F0F7
:1014A00031F8206D20F00104002CEDD170BD00005A
:1014B000E83E002410B50446AFF300802046BDE8A6
:1014C0001040FEF764BF002801D006F0C3BA704791
:1014D00010B5014602A000F068F8012010BD000020
:1014E00053494752545245443A20526564697265E3
:1014F00063743A2063616E2774206F70656E3A20C2
:101500000000000070B50446C068810713D0800653
:1015100001D5A56A04E0A169606808442169451AFB
:101520002046FFF767FF0022064629462046FFF7C0
:10153000B1FE304670BD002070BD70B510B1BDE881
:101540007040DFE70025074C6E1E07E02046FFF7DE
:10155000D9FF00B13546206D20F00104002CF5D1F3
:10156000284670BDE83E002410B50146C2689007C9
:1015700003D0900607D5886A0AE0FFF701FB012136
:101580000160881E10BD8B69486818440B69C01A39
:1015900091F848301BB191F84910401A10BD110361
:1015A000FCD50028FADD401E10BD70B505460C467E
:1015B0000A2000E06D1C06F0E4FA35B12878002816
:1015C000F8D102E0641C06F0DCFA14B1207800289F
:1015D000F8D1BDE870400A2006F0D3BA10B516F075
:1015E000EDFB002010BDFEE7294A016891423AD088
:1015F000274A1832914236D0254A3032914232D0B1
:10160000234A483291422ED0214A603291422AD058
:101610001F4A7832914226D01D4A9032914222D000
:101620001B4AA83291421ED01A4A91421BD0194A35
:101630001832914217D0174A3032914213D0154ACE
:10164000483291420FD0134A603291420BD0114A76
:101650007832914207D00F4A9032914203D00D4A1E
:10166000A832914211D1CAB21823103AB2FBF3F258
:101670006FF30901032A02F00703074AD25CC2652F
:1016800000D9091D81650846704721F0FF01F9E77F
:10169000100002401004024016A3010830B5224A8F
:1016A000012301689142CAB21BD01F4C1434A142DD
:1016B00017D01D4C2834A14213D01B4C3C34A142FE
:1016C0000FD0194C5034A1420BD0174C6434A142B6
:1016D00007D0154C7834A14203D0134C8C34A1426E
:1016E0000CD11421114C083AB2FBF1F10F4A8032AF
:1016F00001F01F0504EB8101AB4010E00C4D1824F4
:10170000103A0D44B2FBF4F1A82D00D80831094A73
:1017100001F01F0402EB8101064AA34080326030D1
:1017200080E80E0030BD00000854025800580258EE
:10173000F0FBFDBF0008024010B50279531E072BD5
:101740002DD8174C0168A1421BD0154C1434A1426E
:1017500017D0134C2834A14213D0114C3C34A14271
:101760000FD00F4C5034A1420BD00D4C6434A14229
:1017700007D00B4C7834A14203D0094C8C34A142E1
:1017800003D10849074C443102E00749064C443173
:1017900004EB8202C0E91B2101219940416710BD81
:1017A00008540258FC580258FC08024010B58369DE
:1017B0004FF0C074826A0146002053B1B3F5005F58
:1017C00015D072B1012A0CD0022A0AD0032A09D1FD
:1017D00004E01AB1012A06D0022A03D1C96AC9015C
:1017E00000D5012010BDC96AA142FAD010BD002A5F
:1017F000F7D0012AF2D0022AF3D0032AF3D010BD89
:101800002DE9F04F804E804FDFF8FC911836DFF85D
:10181000F8A148370468856D0AF1300ADFF8ECB1A9
:101820004C45DFF8ECC1DFF8ECE16DD0B4426BD091
:10183000544569D0BC4267D0DFF8D081A8F11808C0
:10184000444561D05C455FD064455DD074455BD054
:10185000DFF8C481444557D0DFF8BC8108F118088F
:10186000444551D0DFF8B08108F1300844454BD0F1
:10187000DFF8A48108F14808444545D0DFF8988195
:1018800008F1600844453FD0DFF88C8108F1780802
:10189000444539D0DFF8808108F19008444533D0C1
:1018A000DFF8748108F1A80844452DD0DFF86C8179
:1018B000444529D0DFF8648108F11408444523D059
:1018C000DFF8588108F1280844451DD0DFF84C8125
:1018D00008F13C08444517D0DFF8408108F1500872
:1018E000444511D0DFF8348108F1640844450BD039
:1018F000DFF8288108F17808444505D0DFF81C811D
:1019000008F18C08444509D1D0E91948C4F804808D
:10191000C46E1CB1D0E91C48C4F8048004684C456E
:101920002ED0B4422CD054452AD0BC4228D0374EB9
:10193000183EB44224D05C4522D0644520D0744582
:101940001ED0354EB4421BD0334E1836B44217D099
:10195000314E3036B44213D02F4E4836B4420FD0F9
:101960002D4E6036B4420BD02B4E7836B44207D0A1
:10197000294E9036B44203D0274EA836B44215D132
:1019800090F85C603F2406F01F06B440AC60046829
:10199000256825F4802525602EE09A600068C160E6
:1019A000BDE8F08F99600068C260F9E71B4EB44251
:1019B0001BD01A4E1436B44217D0184E2836B442F3
:1019C00013D0164E3C36B4420FD0144E5036B442AB
:1019D0000BD0124E6436B44207D0104E7836B44263
:1019E00003D00E4E8C36B442DAD190F85C600124FC
:1019F00006F01F06B4406C60046863608368402B87
:101A00000368CFD1C9E700001000024088000240FF
:101A1000A0000240B80002401004024008540258DE
:101A2000704710B512F0A0F8012000F0EDFDBDE800
:101A3000104012F0B7B810B512F096F84FF480606D
:101A400000F0E2FD4FF4006000F0DEFD4FF4805046
:101A500000F0DAFD4FF4005000F0D6FD4FF4804066
:101A600000F0D2FD4FF4004000F0CEFDBDE8104084
:101A700012F098B810B512F077F8022000F0C4FD0B
:101A8000BDE8104012F08EB810B512F06DF80420C9
:101A900000F0BAFDBDE8104012F084B810B512F0A5
:101AA00063F8082000F0B0FDBDE8104012F07AB8ED
:101AB00010B512F059F8102000F0A6FDBDE8104056
:101AC00012F070B810B512F04FF8202000F09CFD15
:101AD000402000F099FD802000F096FD4FF48070CA
:101AE00000F092FD4FF4007000F08EFDBDE8104054
:101AF00012F058B8F0B5D1E90843CD690A68C2B10F
:101B00000268254322F4F84213431D430560D1E9DE
:101B10000125D1E903364C692A4345683343896975
:101B20001A43EB0B2243DB030A431A4342600020B3
:101B3000F0BDD1E9012ED1E9036CD1E9057142EA8A
:101B40000E0246EA0C0632433A430A4301682A432E
:101B500022431A436FF30E010A430260E7E742692A
:101B600043F6FE739A4342EA410141610020704707
:101B700070B5D1E90024D1E9023105696FF01F0683
:101B8000224306EB431343EA41210A432A430261FD
:101B9000002070BD2DE9F04F8B8A6FF00F05264CA9
:101BA0004FF07F4BD1F80C9004EB03536FF0FF0420
:101BB0004FEA042A1AB386684FEA09321F4FA2F58A
:101BC00080521A433E4032438260D1E900278E683A
:101BD000521E05EB07150F8A2A43C56804EB06243D
:101BE0000E7E0AEB074322431A430BEB06610A43BE
:101BF00005F070431A43C2600020BDE8F08F91E801
:101C000004110F4E521E0F8A05EB08152A4304EBF0
:101C10000C2C06EB09350E7E42EA0C022A4385683D
:101C20000AEB074422431A430BEB06610A4305F013
:101C300070431A438260DFE70000F0FFFF0F0FFFE1
:101C400000F0FFFF30B5202A054602DA0123934059
:101C500000E00023032001F01F04A0EB51112244F7
:101C600055F82100E0405B1E202A0DDD05EB8102C6
:101C7000C4F12001CC1752F8042C01EBD46424F0F9
:101C80001F04091B8A401043184030BD30B5202A7C
:101C9000054602DA0123934000E00023032001F00F
:101CA0001F04A0EB5111224455F82100E0405B1EB7
:101CB000202A0DDD05EB8102C4F12001CC1752F87A
:101CC000042C01EBD46424F01F04091B8A40104348
:101CD000184030BD406D70472DE9F05F044600F0BC
:101CE000C7FD002C07467DD0E34E022120684FF04F
:101CF0000308DFF888934FF00005DFF884A3B042B3
:101D0000DFF880B334D0DC4A1832904230D04845F6
:101D10002ED050452CD058452AD0DA4A183290425D
:101D200026D0D84A3032904222D0D64A4832904209
:101D30001ED0D54A90421BD0D34A1832904217D0B9
:101D4000D14A3032904213D0CF4A483290420FD01D
:101D5000CD4A603290420BD0CB4A7832904207D0C5
:101D6000C94A9032904203D0C74AA83290427DD1EE
:101D700084F8345084F83510B0422ED0BE49183162
:101D800088422AD0484528D0504526D0584524D0EE
:101D9000BC491831884220D0BA49303188421CD021
:101DA000B8494831884218D0B749884215D0B64959
:101DB0001831884211D0B449303188420DD0B2492F
:101DC0004831884209D0B0496031884205D0AE49D7
:101DD0007831884201D0AC499031016821F001018D
:101DE000016008E027E100BF00F042FDC01B0528AC
:101DF00001D920211CE120680068C007F4D104F15A
:101E000008002168D4E9053C8E4685C8096810435E
:101E1000D4E907281F43636A38439C4F40EA0C000B
:101E20001043394040EA0800042B40EA010003D186
:101E3000D4E90B1211430843954909686FF30F0168
:101E4000B1F1005F0FD36168A1F12902052A08D919
:101E5000163A032A05D9083A012A02D94F3903292B
:101E600001D840F48010CEF8000000E023E02068A4
:101E7000676A4069042F20F0070047EA00070DD188
:101E8000D4E90A01074349B12046FFF78FFC28B186
:101E900040206065012184F83510CCE0206847615E
:101EA0002046FFF7A1FB94F85C203F2102F01F02BF
:101EB0009140816054E0774A90421BD0754B1433B7
:101EC000984217D0734B2833984213D0714B3C3350
:101ED00098420FD06F4B503398420BD06D4B643308
:101EE000984207D06B4B7833984203D0694B8C33C0
:101EF00098427DD1684B84F8345084F835100168DD
:101F0000A26801EA030E402A73D0802A72D0002210
:101F1000D4E90378D4E9053142EAD70242EAD80885
:101F20005C4AD4E9077C48EAD30848EAD10141EA8F
:101F3000D701524241EA1C11142341EA0E0101600B
:101F400020681044B0FBF3F08000E0652046FFF706
:101F50004BFB94F85C20012102F01F02914041608C
:101F60002068B04257D044491831884253D0484580
:101F700051D050454FD058454DD042491831884234
:101F800049D040493031884245D03E4948318842A5
:101F900041D03D4988423ED03B49183188423AD031
:101FA00039493031884236D037494831884232D0B9
:101FB0003549603188422ED03349783188422AD061
:101FC00031499031884226D02F49A831884222D009
:101FD000304988421FD02F49143188421BD02D49E7
:101FE0002831884217D02B493C31884213D002E077
:101FF0001DE017E018E02749503188420BD02549F1
:102000006431884207D023497831884203D021497E
:102010008C31884229D12046FFF740FBA0688028F8
:102020000CD00CE0102273E74FF4804270E740219F
:10203000616584F835800120BDE8F09F6560216E00
:1020400020790860D4E9190141606068401E0728C2
:1020500008D82046FFF770FBE06E0560D4E91C014C
:10206000416002E0E566256765670120656584F8E3
:1020700035000020E0E70000100002404000024070
:102080005800024070000240100402403F8010FEE1
:102090000010005C085402580F00FEFF2DE9F84FB5
:1020A00004008C464FF00000009013D094F83400E8
:1020B000012811D094F835500120002184F8340013
:1020C000012D0BD084F83410C20200906265009894
:1020D000BDE8F88F0120FBE70220F9E78C4D0226CE
:1020E000206884F83560A8428A4D61658A4E8B4F1E
:1020F000DFF82C82DFF82C92DFF82CA2DFF82CB26C
:1021000026D0A84224D0B04222D0B84220D04045A8
:102110001ED048451CD050451AD0584518D0844987
:10212000884215D082491831884211D08049303117
:1021300088420DD07E494831884209D07C496031BF
:10214000884205D07A497831884201D07849903167
:10215000016821F00101016061462046FFF750FB54
:102160006B49206888422CD0A8422AD0B04228D09F
:10217000B84226D0404524D0484522D0504520D0F2
:1021800058451ED06A4A90421BD0694A1832904284
:1021900017D0674A3032904213D0654A4832904295
:1021A0000FD0634A603290420BD0614A783290423D
:1021B00007D05F4A9032904203D05D4AA8329042E5
:1021C0000CD1026822F01E0242F016020260206C5E
:1021D00088B12068026842F008020BE0026822F031
:1021E0000E0242F00A020260206C20B120680268F0
:1021F00042F004020260206888424BD0A84249D0D5
:10220000B04247D0B84245D0404543D0484541D080
:1022100050453FD058453DD0454A90423AD0444A77
:102220001832904236D0424A3032904232D0404A40
:10223000483290422ED03E4A603290422AD03C4AE8
:102240007832904226D03A4A9032904222D0384A90
:10225000A83290421ED0374A90421BD0354A1432E1
:10226000904217D0334A2832904213D0314A3C3240
:1022700090420FD02F4A503290420BD02D4A6432F8
:10228000904207D02B4A7832904203D0294A8C32B0
:1022900090420DD1206E0268D20303D5026842F449
:1022A00080720260E06E18B1026842F480720260CF
:1022B0002068884226D0A84224D0B04222D0B8421A
:1022C00020D040451ED048451CD050451AD0584516
:1022D00018D01749884215D015491831884211D0B5
:1022E0001349303188420DD011494831884209D014
:1022F0000F496031884205D00D497831884201D0BC
:102300000B499031016841F001010160DFE60000F6
:1023100010000240280002404000024058000240E5
:102320007000024088000240A0000240B800024055
:10233000100402400854025870B5044600F098FAA0
:102340000546601C02D004480078044400F090FA6E
:10235000401BA042FAD370BD0800002470B586B0BF
:1023600014216846FEF782FB3A48016800296FD1C4
:10237000012101603848026842F48052026000681E
:1023800000F48050059034480C30026842F004029A
:102390000260026802F004020592026842F08002C4
:1023A0000260026802F080020592026842F0400278
:1023B0000260026802F040020592026842F00802E0
:1023C0000260026802F008020592026842F0100200
:1023D0000260026802F010020592026842F02002D8
:1023E0000260006801AB03244FF63F0200F02000BA
:1023F0000590022000920C2583E8330017486946B7
:1024000000F00EF94CF2037000901548694600F098
:1024100007F9144E4FF6807069460090304600F080
:10242000FFF811486946009500F0FAF82020009066
:102430000E48694600F0F4F848F2301000900C485D
:10244000694600F0EDF869463046009400F0E8F87F
:1024500006B070BD28040024D44402580014025869
:10246000000C02580010025800080258001C0258C4
:10247000001802582DE9F04F4F4D00224FF0010A8D
:102480004FF00F0B92E000BF0AFA02F919EA0103BC
:102490007ED022F0030606F1B0469407D6F808C4B1
:1024A000270FDFF818810BFA07FE40450EEA0C04EF
:1024B00002D14FF0000C40E0DFF804C1604502D1CA
:1024C0004FF0010C39E0DFF8FCC0604502D14FF05D
:1024D000020C32E0DFF8F0C0604502D14FF0030C8F
:1024E0002BE0DFF8E8C0604502D14FF0040C24E097
:1024F000DFF8DCC0604502D14FF0050C1DE0DFF8CD
:10250000D4C0604502D14FF0060C16E0DFF8C8C019
:10251000604502D14FF0070C0FE0DFF8C0C0604506
:1025200002D14FF0080C08E0DFF8B4C0604502D1DA
:102530004FF0090C01E04FF00A0C0CFA07FCA4451F
:1025400013D12C689C432C606F684FF0B0449F43BC
:102550006F6027689F43276067689F436760D6F86E
:10256000084424EA0E04C6F8084407680323D40884
:102570004FEA42084FEA427C03FA08F34FEADC6C68
:102580001F4307600BFA0CF600EB8404276A00E097
:102590000BE0B7432762C4689C43C460446824EAE4
:1025A0000904446084689C438460521C31FA02F33D
:1025B0007FF46AAFBDE8F08F800000580000025839
:1025C0000004025800080258000C0258001002587B
:1025D0000014025800180258001C0258002002582B
:1025E0000024025810B505F021FB00EB400105481E
:1025F00000EB81004168002903D08068BDE81040ED
:10260000084710BD580200244FF0B04110B5D1F872
:102610008820024203D0C1F88800FFF7E3FF10BD15
:102620002DE9FC4F01257E4C00234FF0030A4FF0AB
:10263000B04E4FF00F0BEBE005FA03F637403A00CF
:1026400077D04F68012F05D0022F03D0112F01D072
:10265000122F1AD187684FEA4308D1F80CC00AFA42
:1026600008F927EA09070CFA08FC4CEA070CC0F83D
:1026700008C0476891F804C0B743CCF3001C0CFABB
:1026800003FC4CEA070CC0F804C0C6684FEA430CD0
:10269000D1F80880E1460AFA0CF7BE43019708FA20
:1026A00009F848EA0608C0F80C804E68022E01D0EE
:1026B000122E12D1DE084FEA437C00EB860600960C
:1026C0000F69366A4FEADC6C0BFA0CF807FA0CF764
:1026D00026EA08063743009E37620E790768DDF860
:1026E00004C006F0030606FA09F627EA0C073E4383
:1026F00006604E68F6001CD54A4E376847F0020760
:10270000376036689F0706F00206009623F003063E
:1027100006F1B046B1463F0FD6F80864DFF80881ED
:102720000BFA07FC404526EA0C0603D14FF0000CDB
:1027300041E06CE0DFF8F4C0604502D14FF0010CDD
:1027400039E0DFF8ECC0604502D14FF0020C32E016
:10275000DFF8E0C0604502D14FF0030C2BE0DFF85A
:10276000D8C0604502D14FF0040C24E0DFF8CCC0A3
:10277000604502D14FF0050C1DE0DFF8C4C0604594
:1027800002D14FF0060C16E0DFF8B8C0604502D168
:102790004FF0070C0FE0DFF8B0C0604502D14FF0FA
:1027A000080C08E0DFF8A4C0604502D14FF0090C26
:1027B00001E04FF00A0C0CFA07FC4CEA060CC9F8D1
:1027C00008C426684F6826EA0206FF0300D51643B0
:1027D000266066684F6826EA0206BF0300D51643E6
:1027E0006660D1F804C07646DEF800705FEACC2C53
:1027F00027EA020700D517433760D1F804C077688D
:102800005FEA8C2C27EA020700D5174377605B1C30
:102810000A681746DA407FF40FAFBDE8FC8F00006E
:1028200080000058F4440258000002580004025886
:1028300000080258000C02580010025800140258F8
:1028400000180258001C02580020025800240258A8
:102850000069084000D0012070470AB181617047CB
:102860000904FBE701480068000C70470010005C99
:102870000148806870470000080000240248816811
:10288000027811448160704708000024032010B5CD
:1028900000F0B0F801F072F80F4A1049146813689C
:1028A000C4F3032203F00F038A5CC95C02F01F0229
:1028B00001F01F01D0400A4A20FA01F111600949D4
:1028C0000860002000F010F808B1012010BD00F0F1
:1028D00045F8002010BD00001844025806A3010866
:1028E000040000240000002410B50022014632201C
:1028F0008AB000F05FF8322000F04FF8134801680A
:1029000041F008010160006808A900F00800099082
:10291000684600F0BFFF01F00DF80D4940000022AD
:102920000C4CB0FBF1F10C4840F2E7330460C0E915
:102930000332491EC0E9011202F030FE10B101203D
:102940000AB010BD044802F079FEF9E7E8440258E5
:1029500040420F00000C00405C040024054808B50C
:10296000016841F002010160006800F0020000907F
:1029700008BD0000F444025800280DDB410900F0B6
:102980001F028900012001F1E0219040C1F880017F
:10299000BFF34F8FBFF36F8F7047002809DB4109EA
:1029A00000F01F028900012001F1E0219040C1F8F0
:1029B000000170470E4BF0B41B680D46C3F30223B1
:1029C000C3F10706042E00D90426191D072901D2D8
:1029D000002300E0DB1E012404FA06F19C40491E9E
:1029E0002940641E994014402143F0BC04F0A9BC66
:1029F0000CED00E0064900F0070210B54FF6FF04A9
:102A00000868044B204040EA02201843086010BDCB
:102A10000CED00E00000FA05134970B50A68D243D6
:102A2000520705D5096801F00701814213D118E06A
:102A30000A6822F0070202430A60FFF719FF0A4DF5
:102A40004FF47A760446083D07E000BFFFF710FF19
:102A5000001BB04201D9012070BD2868C04380042A
:102A6000F4D4002070BD00000C48025802480168F0
:102A700041F08071016070470C48025802480168BB
:102A800041F48071016070470048025810B500F0B1
:102A900075FF0B4A0B4914681368C4F3032203F053
:102AA0000F038A5CC95C02F01F0201F01F01D040D5
:102AB000054A20FA01F111600449086010BD0000C8
:102AC0001844025806A30108040000240000002452
:102AD00010B500F00DFF05490968054AC1F3021160
:102AE000515C01F01F01C84010BD00002044025895
:102AF00006A30108494930B5484C0B1D0A68143437
:102B000009681D68246802F00303C5F30012C1F3CD
:102B10000531C4F3CC04002914FB02F200EE102AA4
:102B2000F8EE400A75D03F4A9FED3D1AB7EE000A15
:102B30006BB1DFED3D1A012B01D0022B64D002EE08
:102B4000101A1168F8EE422A81EEA22A21E0334CD5
:102B5000283C23689B0612D5344B246801EE901A5A
:102B60001168C4F3C104F8EE612AE34001EE903A23
:102B7000C1F30801F8EE611A81EEA22A0BE001EE22
:102B8000901ADFED2B2A00BFF8EE611A116882EE71
:102B9000A12AC1F3080101EE901A1168F8EE611A3A
:102BA00040EE811A71EE800A62EE200AC1F34621DE
:102BB00001EE101AB8EE411A31EE001AC0EE811A79
:102BC000BCEEE11A80ED001A1168C1F3064101EE76
:102BD000101AB8EE411A31EE001AC0EE811ABCEE9E
:102BE000E11A80ED011A1168C1F3066101EE101AB5
:102BF000B8EE411A31EE000A80EE801ABCEEC10A2E
:102C000080ED020A30BD04E001EE901ADFED092AE2
:102C1000BAE70021016041608160F3E7284402586F
:102C200000000039384402580024744A0090D00350
:102C30000024744C20BCBE4B494930B5484C0B1D98
:102C40000A681C3409681D68246802F00303C5F390
:102C50000022C1F30551C4F3CC04002914FB02F295
:102C600000EE102AF8EE400A75D03F4A9FED3D1A5B
:102C7000B7EE000A6BB1DFED3D1A012B01D0022B3C
:102C800064D002EE101A1168F8EE422A81EEA22AF0
:102C900021E0334C283C23689B0612D5344B246832
:102CA00001EE901A1168C4F3C104F8EE612AE34002
:102CB00001EE903AC1F30801F8EE611A81EEA22A02
:102CC0000BE001EE901ADFED2B2A00BFF8EE611A3F
:102CD000116882EEA12AC1F3080101EE901A116871
:102CE000F8EE611A40EE811A71EE800A62EE200A57
:102CF000C1F3462101EE101AB8EE411A31EE001A66
:102D0000C0EE811ABCEEE11A80ED001A1168C1F321
:102D1000064101EE101AB8EE411A31EE001AC0EE6B
:102D2000811ABCEEE11A80ED011A1168C1F3066147
:102D300001EE101AB8EE411A31EE000A80EE801A48
:102D4000BCEEC10A80ED020A30BD04E001EE901A2B
:102D5000DFED092ABAE70021016041608160F3E7F5
:102D60002844025800000039404402580024744AA4
:102D70000090D0030024744C20BCBE4B2DE9FC5FB6
:102D8000044650F8241B002500902E460801FE4FF3
:102D9000DFF8F8831DD5606E50B1B0F5801F0CD000
:102DA000B0F5001F0ED0B0F5401F1DD001250FE07B
:102DB000386840F40030386016E00221201D03F02E
:102DC000C3F803E00098022103F04EF905000BD090
:102DD0002E462088C00523D5606D05281ED2DFE869
:102DE00000F00C11161B1B00626ED8F8001021F4C5
:102DF00040111143C8F80010EBE7386840F4003088
:102E0000386009E00021201D03F09EF803E00098DF
:102E1000002103F029F905466DB100E001252E4699
:102E20002088800528D5A06D80281ED00CDC90B1AC
:102E300040280ED114E0626DD8F8001021F007018F
:102E40001143C8F80010EBE7C02813D0B0F5807F1D
:102E500010D001250FE0386840F40030386009E0F8
:102E60000021201D03F070F803E00098002103F01A
:102E7000FBF8054695B12E462088DFF810934005F3
:102E800009F108092CD5D4F8A400B0F5800F20D0A2
:102E90000DDCA0B1B0F5001F0FD115E0A26DD8F880
:102EA000001021F4E0711143C8F80010E4E7B0F518
:102EB000C00F13D0B0F5000F10D001250FE0386817
:102EC00040F40030386009E00021201D03F03CF898
:102ED00003E00098002103F0C7F8054675B12E46BF
:102EE000208800052DD5D4F8A800B0F1007F21D0AE
:102EF0000EDCA8B1B0F1807F10D116E0D4F8A42088
:102F0000D9F8001021F460011143C9F80010E7E777
:102F1000B0F1407F13D0B0F1806F10D001250FE0E9
:102F2000386840F40030386009E00021201D03F0CB
:102F30000BF803E00098002103F096F805466DB108
:102F40002E46206880011FD5A06CD8B110280FD064
:102F5000202812D0302815D0012514E0D4F8A8205C
:102F6000D9F8001021F0E0611143C9F80010E8E73A
:102F7000386840F40030386004E00221201D02F07F
:102F8000E3FF05466DB12E462088C0042BD5E06DC9
:102F9000B0F5005F20D00DDCA0B1B0F5805F0FD19F
:102FA00015E07A48A26C001F016821F0300111433E
:102FB0000160E9E7B0F5405F13D0B0F5804F10D065
:102FC00001250FE0386840F40030386009E0002146
:102FD000201D02F0B9FF03E00098002103F044F83F
:102FE000054685B12E462088800429D5206EB0F58F
:102FF000403F23D010DC08B3B0F5803F14D0B0F5CB
:10300000003F0FD115E0E26DD8F8001021F4E04147
:103010001143C8F80010E6E7B0F5802F0ED0B0F5E8
:10302000A02F0BD001250AE00121201D02F08CFF0A
:1030300003E00098012103F017F805468DB12E46F4
:10304000208840042AD5D4F8AC00B0F1405F23D0EA
:1030500010DC08B3B0F1805F14D0B0F1005F0FD185
:1030600015E0226ED8F8001021F4E0211143C8F8D1
:103070000010E5E7B0F1804F0ED0B0F1A04F0BD0BB
:1030800001250AE00121201D02F05EFF03E0009807
:10309000012102F0E9FF05466DB12E4620880004AB
:1030A0001FD5E06ED8B1B0F1805F0ED0B0F1005FF7
:1030B00010D0012514E0D4F8AC20D9F8001021F08C
:1030C000E0411143C9F80010E8E7386840F40030E7
:1030D000386004E00121201D02F036FF05466DB185
:1030E0002E462068C0011ED5606CD0B101280ED0DC
:1030F000022811D0032814D0012513E0E26ED8F87D
:10310000001021F040511143C8F80010E9E7386879
:1031100040F40030386004E00221201D02F014FF6A
:10312000054685B12E462068DFF85CB04002ABF161
:103130001C0B57D51648016841F480710160FFF7F8
:1031400097FB82460EE01148626C001F016821F077
:10315000030111430160E6E7FFF78AFBA0EB0A00D9
:1031600064283DD80A480068C005F5D57DBBDFF866
:103170001CA0B4F8B0100AF1200ADAF8000001F43B
:10318000407100F4407005E02C440258504402584D
:1031900000480258884211D0DAF80010DAF800200E
:1031A00021F4407142F48032CAF80020DAF800209D
:1031B00022F48032CAF80020CAF80010D4F8B00017
:1031C000B0F5807F21D1FFF753FB019019E008E0B3
:1031D000FFF74EFB0199411A41F28830814210D924
:1031E00003252E462078DFF830A4C0073DD0A06F1D
:1031F000182838D026DC80B3082829D0102825D1FB
:103200002CE0DAF800008007E2D5D4F8B010C1F362
:103210000120032858460DD0016821F47C5101603B
:10322000B4F8B020DAF80010C2F30B021143CAF868
:103230000010D7E7F94A036802EA111223F47C511F
:103240001143ECE720280ED028280CD001250BE0F4
:103250000121201D02F078FE04E004E00098012125
:1032600002F002FF05465DB12E46207880071ED58C
:10327000606F062819D2DFE800F0160C111616163A
:10328000A26FDAF8001021F038011143CAF80010DB
:10329000EBE70121201D02F057FE03E00098012119
:1032A00002F0E2FE054675B100E001252E462078C9
:1032B00040071FD5D4F89000062819D2DFE800F0A7
:1032C000160C11161616626FDAF8001021F00701BD
:1032D0001143CAF80010EAE70121201D02F034FE74
:1032E00003E00098012102F0BFFE05469DB100E019
:1032F00001252E46207880062BD5D4F88C00B0F11D
:10330000405F24D011DC10B3B0F1805F15D0B0F174
:10331000005F10D116E0D4F89020D9F8001021F009
:1033200007011143C9F80010E4E7B0F1804F0ED057
:10333000B0F1A04F0BD001250AE00021201D02F0C2
:1033400003FE03E00098022102F08EFE05468DB1D7
:103350002E46207840062BD5D4F89800B0F5406F63
:1033600024D011DC10B3B0F5806F15D0B0F5006F2C
:1033700010D116E0D4F88C20DAF8001021F0E041EA
:103380001143CAF80010E4E7B0F5805F0ED0B0F545
:10339000A05F0BD001250AE00021201D02F0D4FD22
:1033A00003E00098022102F05FFE05468DB12E4633
:1033B000207800062BD5D4F89C00B0F5C04F24D05F
:1033C00011DC10B3B0F5005F15D0B0F5804F10D10F
:1033D00016E0D4F89820D9F8001021F4E0511143F8
:1033E000C9F80010E4E7B0F5004F0ED0B0F5204F5B
:1033F0000BD001250AE00021201D02F0A5FD03E00D
:103400000098022102F030FE05464DB12E4620788C
:1034100000071ED5D4F88000B0F5805F0AD00FE019
:10342000D4F89C20D9F8001021F460411143C9F868
:103430000010ECE70098022102F016FE00B1012610
:10344000D4F88020DAF8001021F440511143CAF872
:1034500000102078C00613D5D4F89400B0F5807F12
:1034600005D10098022102F0FFFD00B10126D4F839
:103470009420D9F8001021F440711143C9F80010CC
:103480002068000316D5D4F8A00038B1B0F5803F0D
:1034900009D0B0F5003F0BD001250AE00021201D26
:1034A00002F052FD03E00098022102F0DDFD054626
:1034B00085B12E462068400322D5D4F88400B0F5AB
:1034C000801F11D0B0F5001F13D0B0F5401F15D0EC
:1034D000012514E0D4F8A020D9F8001021F44031DF
:1034E0001143C9F80010E5E7386840F4003038604F
:1034F00004E00098012102F0B7FD054655B12E46C3
:103500002068C0031CD5E06C70B1B0F5803F10D0CE
:10351000012514E0D4F88420DAF8001021F44011D9
:103520001143CAF80010EBE7386840F40030386007
:1035300004E00221201D02F007FD0546CDB12E4614
:103540002068800005D50098022102F08DFD00B1B1
:103550000126206880031BD5E06FB8B1B0F5807FED
:1035600010D0B0F5007F11D0B0F5407F0ED001250E
:103570000DE02948E26C0838016821F480311143DC
:103580000160DDE7386840F400303860F5B32E465E
:103590002068C00207D5226FD8F8001021F0004142
:1035A0001143C8F800102068C00008D5D4F8B42032
:1035B000DBF8001021F480411143CBF800102068A3
:1035C000800207D5A26ED8F8001021F08071114357
:1035D000C8F80010206840000CD5DBF8001021F47A
:1035E0000041CBF80010DBF80010D4F8B8201143EC
:1035F000CBF800102068002807DA0748226D083849
:10360000016821F040511143016000E008E086B1FB
:103610000120BDE8FC9F000054440258CFFFFF008A
:10362000E26FDAF8001021F440711143CAF800107B
:10363000AEE70020EDE700002DE9F05F04000F4643
:103640007ED0DFF83882D8F8000000F00F00B842D2
:103650000CD2D8F8001021F00F013943C8F800103F
:10366000D8F8000000F00F00B84269D12078844DEE
:1036700040070AD52069296801F07001884204D901
:10368000296821F070010143296020787C4E361DA5
:1036900000070AD56069316801F07001884204D9D9
:1036A000316821F07001014331602078C0060AD5ED
:1036B000A069316801F4E061884204D9316821F4DD
:1036C000E061014331602078DFF8B4B180060BF18E
:1036D000080B0CD5E1695846DBF8002002F07002B7
:1036E000914204D9026822F070020A4302602078F5
:1036F00080070AD5E068296801F00F01884204D9E3
:10370000296821F00F01014329602078C0073ED0CD
:103710005B49A2682868183920F47060104328605B
:103720006068022818D0032819D00968012819D028
:10373000490700294ADADFF848A1AAF1080A00E09F
:1037400044E0DAF8002022F007020243CAF8002021
:10375000FFF78EF8814612E009688903E9E70968F6
:103760008901E6E7C905E4E7FFF782F8A0EB090164
:1037700041F28830814202D90320BDE8F09F6168A0
:10378000DAF8000000F03800B0EBC10FECD120787F
:1037900080070AD5E068296801F00F01884204D249
:1037A000296821F00F0101432960D8F80010404634
:1037B00001F00F01B9420BD9016821F00F01394323
:1037C0000160006800F00F00B84201D00120D4E78A
:1037D000207840070AD52069296801F070018842E5
:1037E00004D2296821F07001014329602078000784
:1037F0000AD56069316801F07001884204D23168ED
:1038000021F07001014331602078C0060AD5A0691B
:10381000316801F4E061884204D2316821F4E0614A
:1038200001433160207880060CD5E1695846DBF809
:10383000002002F07002914204D2026822F070026D
:103840000A43026000F09AF80E492A682B68C2F316
:10385000032203F00F038A5CC95C02F01F0201F02F
:103860001F01D040084A20FA01F1116007490860A1
:1038700007480068BDE8F05FFFF736B80020005247
:103880001844025806A30108040000240000002484
:103890000C00002470B5144C3F220260124A2468C8
:1038A0000832131D114D04F00704446016681C1DF6
:1038B00006F470668660166806F00F06C660126829
:1038C00002F0700202611A6802F0700242611A6826
:1038D00002F4E0628261226802F07002C26128682C
:1038E00000F00F00086070BD104402580020005224
:1038F00030B500F043F80B4A0B490C4B15681468BF
:10390000C5F3032204F00F048A5C095D02F01F0274
:1039100001F01F01D040064A20FA01F11960106041
:10392000084630BD1844025806A3010804000024CC
:103930000000002400B5FFF7DBFF05490968054AD0
:10394000C1F30211515C01F01F01C84000BD00002D
:103950001C44025806A3010800B5FFF7C9FF05493A
:103960000968054AC1F30221515C01F01F01C840FA
:1039700000BD00001C44025806A30108454970B56B
:1039800045480968434B103B11F0380208D001113B
:10399000082A03D0102A0BD0182A0BD0084670BD75
:1039A00019688906FBD51968C1F3C101C84070BD0B
:1039B0003A4870BD3749374D18310C1D24350A6817
:1039C000096826682D6802F0030406F00102C1F3BD
:1039D0000511C5F3CC0515FB02F200EE102AB8EE76
:1039E000400AE9B32F4ADFED2E0AB7EE001A6CB198
:1039F000DFED2D1A012C01D0022C43D002EE101A5B
:103A00001068F8EE422A81EEA22A1EE01C68A40685
:103A100011D51B6801EE901A1168C3F3C103F8EECB
:103A2000612AD84001EE900AC1F30800F8EE611A4D
:103A300081EEA22A0BE001EE901ADFED1C2A00BFF6
:103A4000F8EE611A106882EEA12AC0F3080001EEB8
:103A5000900AF8EE611A40EE201A31EE810A00E079
:103A600015E022EE000A1068C0F34620401C00EE6C
:103A7000900AF8EE600A80EE201ABCEEC10A10EE41
:103A8000100A70BD01EE901ADFED092AD8E7002078
:103A900070BD0000104402580090D00340787D01B2
:103AA00000000039304402580024744A0024744C49
:103AB00020BCBE4BF0B50D461F49204C002887B0F6
:103AC00016464FF000004FF002020F684FF003035C
:103AD00019D047F004070F60096801F0040105914F
:103AE00011020091CDE90120CDE903301448694667
:103AF000FEF796FD206845EAC61120F07E40084397
:103B0000206007B0F0BD47F001070F60096801F0C1
:103B1000010105914FF480710091CDE90120CDE9BB
:103B2000033008486946FEF77BFD2068354320F0E6
:103B3000FE702843E4E70000E044025810440258B5
:103B400000080258000002582DE9F05F04007CD004
:103B5000FF4F2078FE4D1837DFF8F493103DC00773
:103B600048D0D9F80000396800F03800102815D086
:103B7000182803D101F0030002280FD06068B0F5C7
:103B8000803F12D010B1B0F5A02F18D0286820F4D3
:103B900080302860286820F4802009E028688003AD
:103BA00028D560680028D2D024E0286840F480300E
:103BB0002860606888B1FEF75BFE064609E0286869
:103BC00040F480202860F0E7FEF752FE801B642856
:103BD0007ED828688003F7D50CE0FEF749FE06463C
:103BE00005E000BFFEF744FE801B6428F0D828687B
:103BF0008003F7D4207841F20308D54E0C3E8007AD
:103C000053D5D9F80000396810F038000ED01828C4
:103C100001D188070AD0E068A8B3296821F019010A
:103C200001432960FEF724FE82461BE02868400716
:103C300002D5E06800288AD0FEF714FE40451BD864
:103C40002069402812D0316800E0CCE021F47C31BA
:103C500041EA0030306028E0FEF70AFEA0EB0A00DF
:103C60000228B5D828684007F6D5E5E7306820F483
:103C70007C3040F40030EDE7207C316821F0FE41DB
:103C800041EA0060E6E7FFE7286820F001002860CD
:103C9000FEF7EEFD824605E0FEF7EAFDA0EB0A0026
:103CA000022895D828684007F6D42078C0065FD54A
:103CB000D9F80000DFF898B2396800F03800ABF1AD
:103CC000040B082812D0182805D101F0030000E0E9
:103CD000EAE001280AD0E0690028286838D040F0DE
:103CE00080002860FEF7C4FD824623E02868C005F6
:103CF00023D5E069802876D11FE0206A202821D0D2
:103D0000316821F0F84141EA8060306030E000BF66
:103D100094F82010DBF8002022F07C5242EA016186
:103D2000CBF8001024E000BFFEF7A2FDA0EB0A00D4
:103D3000022896D82868C005F6D5FEF793FD4045C1
:103D4000E6D8DAE7306820F0F84040F08040DCE761
:103D500020F080002860FEF78BFD064605E000BFDE
:103D6000FEF786FD801B02289BD82868C005F7D483
:103D70002078000729D5764861696430002980469B
:103D8000016811D041F001010160FEF771FD0646A6
:103D900005E000BFFEF76CFD801B0228C9D8D8F8EB
:103DA00000008007F6D510E021F001010160FEF768
:103DB0005FFD064605E000BFFEF75AFD801B0228A6
:103DC00072D8D8F800008007F6D42078800623D572
:103DD000A0690028286810D040F480502860FEF7C1
:103DE00047FD064605E02CE1FEF742FD801B022858
:103DF0005AD828688004F7D50EE020F48050286057
:103E0000FEF736FD064604E0FEF732FD801B022871
:103E10004AD828688004F7D4207840074FD5DFF8C7
:103E20003481D8F8001041F48071C8F80010FEF712
:103E30001FFD064605E000BFFEF71AFD801B642843
:103E400032D8D8F80000C005F6D5414EA0686036DB
:103E500001280AD008B1052813D0306820F00100ED
:103E60003060306820F0040002E0306840F001006B
:103E70003060A06841F2883A90B1FEF7F9FC8046C4
:103E80000AE0306840F004003060EEE7FEF7F0FC36
:103E9000A0EB0801514507D830688007F6D50EE041
:103EA000FEF7E6FC804607E084E000BFFEF7E0FC9A
:103EB000A0EB080151457DD830688007F6D4606AD0
:103EC000F0B3DFF88C80D9F8001008F12008C1F3B6
:103ED000C20103296FD00228286820F08070286072
:103EE00003D0FEF7C5FC044680E0FEF7C1FC0646A1
:103EF00005E000BFFEF7BCFC801B022873D82868D1
:103F00008001F7D4E26A40F2F331386854F8283F70
:103F1000884340EA021018433860217B4FF4FE0CBE
:103F200022894FF0FE47208A4902267D521E401EFC
:103F3000A1F5007189B20CEA0040C2F3080200E06A
:103F400081E01143761E0143014807EA066203E05F
:103F500010440258004802581C3011433B4AC8F82C
:103F60000010016821F00101016011684FF6F87638
:103F7000236AB14341EAC30111600168A26921F0DB
:103F80000C01114301600168E26921F00201114353
:103F90000160016841F480310160016841F4003141
:103FA0000160016841F480210160016841F0010174
:103FB000016001E017E01DE0286840F08070286093
:103FC000FEF756FC044604E0FEF752FC001B0228F4
:103FD00009D828688001F7D535E000BFFEF748FC16
:103FE000001B022802D90320BDE8F09F2868800149
:103FF000F4D428E039680128D8F8000021D0A26A5A
:1040000001F0030393421CD1E26AC1F305118A4215
:1040100017D1216BC0F30802491E8A4211D1616B8E
:10402000C0F34622491E91420BD1A16BC0F3064258
:10403000491E914205D1E16BC0F30660491E8142E1
:1040400001D00120D0E70020CEE700003444025820
:1040500010B50B4601680F48002A496801EA0001C3
:1040600001F03F044FEA1140D870C1F304225A70A6
:104070009C70C1F3423119700AD102F085F8D870F2
:10408000587802F081F85870987802F07DF89870AE
:10409000002010BD3FFFFF0010B50B460168134C18
:1040A000002A896A596001680969C1F30E019960A3
:1040B0000068016801EA040101F07F04C1F30540D2
:1040C0001870C1F306225A709C704FEA9151D97052
:1040D0000AD102F059F81870587802F055F8587063
:1040E000987802F051F89870002010BD7F7F7F0013
:1040F00070B504004FF0010041D094F8210028B9B8
:10410000002084F82000204600F03CF8022184F8CA
:104110002110CA2022685321506220684162204643
:1041200002F048F818BB2068154A81681140816088
:10413000D4E90013A569226988682A43184310430B
:10414000886022682189E06840EA014010612046C9
:1041500002F052F858B92168CA6C22F00302CA640E
:1041600022686369E169D56C19432943D1642268E7
:10417000FF215162002802D1012184F8211070BD75
:10418000BFFF8FFF7047000070B5044690F8200015
:104190000B4601281BD0012684F82060022084F8F9
:1041A00021005878AAB1DA78000299781B7841EAA0
:1041B000024540EA433005432268CA215320516238
:1041C00021684862204601F0F5FFC8B11FE00220D7
:1041D00070BDC10603D500F0EF000A305870D878E2
:1041E00001F0DBFF0204587801F0D7FF42EA002219
:1041F000987801F0D2FF1978024342EA4135DBE7B3
:104200002168084805404D60204601F0F5FF22680E
:10421000FF21516208B984F82160002184F8201040
:1042200070BD00003FFFFF002DE9F041044690F80B
:10423000200090460D46012812D0012784F82070F6
:10424000022184F82110CA2022685321506220687C
:104250004162204601F0AEFF4FF0000618B12AE09F
:104260000220BDE8F0812068B8F1000F80684FEAB5
:10427000406025D0002800DBEE7068782A78A978A5
:10428000EB784FEA002C41EA02404CEA83510843A4
:1042900022681849084010602068816821F4802154
:1042A00081602168D5E903028B6810431843886058
:1042B000204601F0A1FF2268FF215162A0B115E064
:1042C000002800DBEE70287801F067FF02046878B0
:1042D00001F063FF42EA0022A87801F05EFFE9786E
:1042E000024342EA8150D3E784F8217084F82060C9
:1042F000B7E700007F7F7F0070B504460068C168A3
:1043000021F0A001C160FEF7B3FA4FF47A760546BA
:1043100007E000BFFEF7ACFA401BB04201D9032012
:1043200070BD2068C0688006F4D5002070BD000014
:1043300070B504000D4603D094F82C0010B107E0CE
:10434000012070BD002084F82D00204600F018F8F0
:10435000022084F82C002068211DFDF7CBFBD4E956
:1043600000022946FDF716FC04480121026842F0CC
:104370000042026084F82C10002070BD0040005202
:10438000FDF7ECBF10B5044690F82C00022804D0CD
:1043900094F82C00012801D0012010BD022084F8DF
:1043A0002C002068FDF7DBFB012084F82C000020A6
:1043B00010BD000070B5044690F82C000D46022890
:1043C00004D0012803D0052801D0012070BD0220AF
:1043D00084F82C002068FDF7CBFB2868022805D064
:1043E0005FF0010084F82C00002070BD0520F9E783
:1043F000F0B587B0044614216846FCF737FB1E4928
:104400002068884235D11D48016841F4803101603F
:10441000006800F48030059018480C30016841F0C5
:1044200004010160016801F004010591016841F097
:1044300008010160006802240125694600F00800B7
:10444000059003260C274FF4F8508DE8F1000C4836
:10445000FEF7E6F8042069468DE8F1000948FEF70A
:10446000DFF8002231201146FEF7A4FA3120FEF7D2
:1044700094FA07B0F0BD000000700052D444025816
:1044800000080258000C0258704790F881007047ED
:104490002DE9F047040029D04A4A4FF0000920686E
:1044A000494B4A4D9042C4F8289006D0984204D017
:1044B000A84202D0E1680F2918D8E1684FF0010A3C
:1044C000E76B0831C9080AEB57167143904205D0D3
:1044D000984203D0A84201D0082907D8904203D0BF
:1044E000984201D0A84204D1102902D90120BDE888
:1044F000F08794F8810020B9204684F8809000F07D
:1045000067F8022084F881002068016821F0010129
:104510000160A069B0F1806F0AD16068B0F5800FCA
:1045200006D1A06B20B92068016841F48051016078
:10453000A56AE0692368E16B2843E26808431043F9
:104540009860D4E90D02D4E905C1636A256918436E
:10455000D4F820800A43266810432843A56DD4E987
:104560000172D4E9123140EA0C0040EA08003843F5
:104570000843104318432843F060606868B9206816
:10458000816821F4C05141F4006181602068816834
:1045900021F4C06141F4806181602068016D21F0E7
:1045A000010101656068400206D52068626DC1683E
:1045B00021F000411143C160C4F8849084F881A0C7
:1045C000002094E70030014000380040003C0040EB
:1045D0002DE9F04186B0064614216846FCF746FAFC
:1045E0004D490224326801254C4B10394A480326B4
:1045F00005279A4242D1026842F480520260006864
:1046000000F480500590086840F0010008600868D8
:1046100000F001000590086840F00200086008689A
:1046200000F002000590086840F008000860086883
:1046300000F008000590086840F040000860086835
:1046400001AA4FF02008CDF8008000F04000694634
:10465000CDE9047082E870003148FDF7E1FF01AA5E
:10466000CDF800802F48694682E8F000FDF7D8FFBA
:10467000200269468DE8F1002B4819E02B4B9A4245
:104680001BD125480838026842F480420260006865
:1046900000F480400590086840F480700860086865
:1046A000694600F4807005900E208DE8F1002048E6
:1046B000FDF7B6FF06B0BDE8F0811E4B9A42F9D176
:1046C000026842F400520260006800F40050059055
:1046D000086840F010000860086800F010000590BD
:1046E0000D481838016841F0020101600068694610
:1046F00000F0020005904FF4A0408DE8F1000E4854
:10470000FDF78EFF002254201146FEF753F9542086
:10471000FEF743F9CEE70000F044025800300140B4
:1047200000000258000402580018025800380040E7
:104730000020025800340140001002582DE9FF5FAC
:10474000044616460F461D4600214FF0040BD4E9DF
:104750000002009130300290B2F5800F01D1A068C4
:1047600088B194F88000012819D04FF0010984F82D
:104770008090FEF77DF894F8811082460020012990
:104780000FD0022126E084F881B03A461146204637
:104790000093334600F0DBFA04B0BDE8F09F02203E
:1047A000FAE7B7B1AEB1A26880466766A4F8686060
:1047B00084F881B0C4F88400A4F86A60E065A4F8C5
:1047C0006000A4F86200B2F5C02F2067606705D0D2
:1047D00009E0012184F880000846DDE720680168CF
:1047E00021F400610160206841686FF30F013143DB
:1047F00041602068016841F0010101606068B0F526
:10480000800F04D12068016841F400710160E06804
:104810000F282ED948F20806B4F86A00002859D0AB
:104820002068416931420BD0006B616E0860606E98
:10483000001D6066B4F86A00401EA4F86A00EBE749
:10484000FEF716F8A0EB0A00A84202D3681CE3D0DA
:1048500001E0002DE0D1204601F00CFED4F88420C8
:1048600084F8808042F48071C4F8841084F88190C8
:1048700079E007282AD868E02068416911F4604F80
:1048800019D04169090409D5006B616E0860606E3A
:10489000001D6066B4F86A00801E09E00298008876
:1048A000616E0880606E801C6066B4F86A00401E0D
:1048B000A4F86A000AE0FDF7DBFFA0EB0A00A842BB
:1048C00002D3681C02D0C6E7002DC4D0B4F86A0039
:1048D0000028D1D13DE02068416911F4604F2AD011
:1048E0004169090409D5006B616E0860606E001DA6
:1048F0006066B4F86A00001F1AE0416901F4C04123
:10490000B1F5005F0AD902980088616E0880606E78
:10491000801C6066B4F86A00801E09E090F83000E0
:10492000616E0870606E401C6066B4F86A00401EDC
:10493000A4F86A0009E0FDF79BFFA0EB0A00A8427B
:1049400002D3681C01D010E07DB1B4F86A000028E1
:10495000C1D1204601F08EFD84F88190D4F88410F6
:1049600084F8808079B1012016E7204601F082FDAD
:10497000D4F8842084F8808042F48070C4F88400E5
:1049800084F88190EFE7009806E700002DE9F041F8
:104990000446164604204FF48008A2685AB963689A
:1049A000434508D184F88100334620460A46BDE8D5
:1049B000F04100F05DBB94F88030012B09D094F8F1
:1049C00081300127002584F88070012B04D002205B
:1049D0002DE00220BDE8F08141B33EB36166603452
:1049E000B2F5C02F84F821006562256165612580DC
:1049F000268166816580A4F1600404D12068016885
:104A000021F400610160E0684FF480410F2803D970
:104A1000E26F92698A4209D107284FF4005209D9FE
:104A2000E06F8069904205D0884203D0012084F86D
:104A30008050CFE72068836823F480438360E06878
:104A4000072811D8E06F8369934205D1B4F86A2032
:104A5000521C5208A4F86A208069884210D1B4F828
:104A60006A00C01C800809E00F2809D8E06F80693F
:104A7000884205D1B4F86A00401C4008A4F86A00D6
:104A8000E06F21490164E16F2048C863E16F20486D
:104A9000C864E06F0565B4F86A302168626EE06F43
:104AA0003031FDF7FBFA48B1D4F88410384641F0B4
:104AB0001001C4F8841084F881708BE7E06FC0693E
:104AC000B0F5807F206841686FF30F0100D031435B
:104AD00041602068816841F48041816020680169FB
:104AE00041F4507101612068016841F001010160E9
:104AF0006068404504D12068016841F4007101609C
:104B0000284684F8805065E75D6500087B650008ED
:104B100031650008704770472DE9FC5F0446006866
:104B200017468A4600211D4694F8802000F1200B8C
:104B30000191012A0DD04FF0010884F88080FDF723
:104B400097FE814694F881000026012804D00220B7
:104B50001EE00220BDE8FC9FBAF1000F17D0B7B1EC
:104B6000A1680320C4F85CA0A4F8607084F88100F8
:104B7000C4F88460A4F862706666A4F86860A4F85B
:104B80006A60B1F5C02F6667266704D008E001208F
:104B900084F88060DEE72068016841F4006101600C
:104BA000206841686FF30F01394341602068016854
:104BB00041F0010101606068B0F5800F04D1206808
:104BC000016841F400710160E0680F281AD82CE0F8
:104BD0002068416989070BD5E16D09680162E06DC4
:104BE000001DE065B4F86200401EA4F8620009E010
:104BF000FDF73EFEA0EB0900A84202D3681C01D0DD
:104C000005E025B1B4F862000028E1D183E0204638
:104C100001F030FCD4F8841084F8806041F4807195
:104C2000C4F8841084F881808DE007282CD86EE0C9
:104C30002068416989071CD5B4F8621001290BD995
:104C4000E16B49B1E16D09680162E06D001DE0654D
:104C5000B4F86200801E09E0E06D0188ABF8001036
:104C6000E06D801CE065B4F86200401EA4F86200AC
:104C70000AE0FDF7FDFDA0EB0900A84202D3681C85
:104C800002D0C4E7002DC2D0B4F862000028CFD112
:104C900041E02068416989072ED5B4F862100329E4
:104CA0000CD9E16B402909D9E16D09680162E06D19
:104CB000001DE065B4F86200001F1AE0B4F862104D
:104CC00001290CD9E16B51B1E06D0188ABF80010FE
:104CD000E06D801CE065B4F86200801E09E0E16DC3
:104CE000097880F82010E06D401CE065B4F862009F
:104CF000401EA4F862000AE0FDF7BAFDA0EB09002F
:104D0000A84202D3681C02D081E7002DB9D0B4F8C4
:104D100062000028BDD100224B46082120460095A4
:104D200001F067FC28B1D4F8840040F02000C4F8FA
:104D30008400204601F09EFB84F88180D4F8840032
:104D400084F8806008B1012004E7019802E72DE9AA
:104D5000FF4F83B090F880100446006801294FF09F
:104D60000001109F1D46019100F1200100F130006B
:104D700093460291009014D04FF0010A84F880A06D
:104D8000FDF776FD804694F88100636800210128D4
:104D90002E464FF480020CD0934208D1A36833B959
:104DA00003E0022007B0BDE8F08F042801D0022004
:104DB00037E0049898B3BBF1000F31D07DB394F87D
:104DC0008100042802D0052084F881008946084625
:104DD000C4F88410C4F864B0A4F86A50A4F8685009
:104DE0000499E165A4F86250A4F8605020676067F8
:104DF000206841686FF30F01294341602068016812
:104E000041F0010101606068904204D120680168AE
:104E100041F400710160E0680F2835D846E0FFE7F3
:104E2000012084F88010BDE72068416989070DD50D
:104E300065B1E16D09680162E06D001DE065B4F8DF
:104E40006200401EA4F86200B4F8625048F2080202
:104E50002068416911420DD066B1006B616E086037
:104E6000606E001D6066B4F86A00401EA4F86A0017
:104E7000B4F86A60FDF7FCFCA0EB0800B84202D36E
:104E8000781C01D004E01FB155EA0600CCD1D2E075
:104E9000204601F0EFFAD4F8842084F8809042F4A0
:104EA0008071C4F8841084F881A0DCE007284DD814
:104EB000BEE02068416989071CD5DDB1012D0BD901
:104EC000E16B49B1E16D09680162E06D001DE065CB
:104ED000B4F86200801E09E0E06D0188029801804C
:104EE000E06D801CE065B4F86200401EA4F862002A
:104EF000B4F862502068416911F4604F1BD0D6B1FC
:104F00004169090409D5006B616E0860606E001D7F
:104F10006066B4F86A00801E09E000980088616E3F
:104F20000880606E801C6066B4F86A00401EA4F8B9
:104F30006A00B4F86A60FDF79BFCA0EB0800B84279
:104F400002D3781C02D0A3E7002FA1D055EA0600B7
:104F5000AFD170E02068416989072CD55DB3032D7E
:104F60000CD9E16B40290BD9E16D09680162E06D54
:104F7000001DE065B4F86200001F18E0012D0CD997
:104F8000E16B51B1E06D018802980180E06D801CF9
:104F9000E065B4F86200801E09E0E16D097880F8F0
:104FA0002010E06D401CE065B4F86200401EA4F8DB
:104FB0006200B4F862502068416911F4604F2CD04F
:104FC0005EB34169090409D5006B616E0860606ECB
:104FD000001D6066B4F86A00001F1AE0416901F420
:104FE000C041B1F5005F0AD900980088616E088061
:104FF000606E801C6066B4F86A00801E09E090F85C
:105000003000616E0870606E401C6066B4F86A0023
:10501000401EA4F86A00B4F86A60FDF729FCA0EB12
:105020000800B84202D3781C02D031E7002F8AD0A2
:1050300055EA06008ED100224346082120460097FB
:1050400001F0D7FA28B1D4F8840040F02000C4F869
:105050008400204601F00EFA84F881A0D4F8841070
:1050600084F8809009B101209CE601989AE600003E
:105070002DE9F041044690F880001E4601280DD02D
:1050800094F88100012763684FF48008002584F8B4
:105090008070434507D1A3682BB902E00220BDE828
:1050A000F081042803D0012801D0022030E071B340
:1050B0006AB366B394F88100042802D0052084F80E
:1050C00081004FF48040C4F88450E165A4F860602A
:1050D000A4F862606266A4F86860A4F86A60256754
:1050E000656721688A6822F440428A60E1680F2976
:1050F00003D9E26F9269824209D107294FF4005C1B
:1051000009D9E36F9A6962452AD0824228D00120EA
:1051100084F88050C3E7A16F8A69624505D1B4F86D
:105120006220521C5208A4F862208969814205D18C
:10513000B4F86210C91C8908A4F86210E16F8A698A
:10514000624505D1B4F86A20521C5208A4F86A20BE
:105150008969814219D1B4F86A00C01C800812E044
:105160000F2912D8A16F8969814205D1B4F8621064
:10517000491C4908A4F862109969814205D1B4F824
:105180006A00401C4008A4F86A0094F88100E16FAE
:10519000042813D02F4808642F48E16FC863E06FDC
:1051A0002E49C164E06F0565B4F86A302168626E0B
:1051B000E06F3031FCF772FFD8B904E0284808648A
:1051C0002848E16FEAE72068816841F48041816006
:1051D000A06F0564A06FC563A06FC564A06F05656F
:1051E000B4F862302268E16DA06F2032FCF756FF00
:1051F00048B1D4F88410384641F01001C4F8841046
:1052000084F881704BE7A06FC069B0F5807F20689B
:1052100041686FF30F0100D031434160206881681D
:1052200041F4004181602068016941F458710161D5
:105230002068016841F0010101606068404504D1C7
:105240002068016841F400710160284684F88050AC
:1052500025E7000071650008CB650008316500088E
:105260005D6500087B6500082DE9F041044690F873
:1052700080001646012809D094F8810001270025F6
:1052800084F88070012804D0022032E00220BDE8BA
:10529000F08169B366B3A2680320E165A4F8606099
:1052A00084F88100C4F88450A4F86260656665677C
:1052B0002567A4F86850A4F86A50B2F5C02F04D14D
:1052C0002068016841F400610160E1684FF48042A8
:1052D0000F2903D9A06F8069904209D1A06F0729D7
:1052E0004FF4005308D98069984216D0904214D0E8
:1052F000012084F88050CAE78169994205D1B4F849
:105300006210491C4908A4F86210806990420ED1CD
:10531000B4F86200C01C800807E00F2907D890424B
:1053200005D1B4F86200401C4008A4F86200A06FE8
:1053300024490164A16F2448C863A16F2348C8644D
:10534000A06F05652068816821F400418160B4F890
:1053500062302268E16DA06F2032FCF79FFE48B1F9
:10536000D4F88410384641F01001C4F8841084F851
:1053700081708CE7A06FC069B0F5807F20684168BC
:105380006FF30F0100D0314341602068816841F420
:10539000004181602068016941F448710161206821
:1053A000016841F0010101606068B0F5800F04D12F
:1053B0002068016841F400710160284684F880503B
:1053C00065E7000067650008A3650008316500080F
:1053D000704770477047704704284FF0E02001691C
:1053E00003D021F004010161704741F00401FAE7A4
:1053F000401EB0F1807F10B501D3012010BD4FF0E9
:10540000E02460610F21601701F09BFF0020A06184
:105410000721216110BD704770477047F0B590F8C3
:105420003C20012A38D01D4E012480F83C40022245
:1054300080F83D2002681A4D5368B242D2F808C085
:1054400001D0AA4203D14F6823F470033B430F6895
:1054500023F070031F4357600268B24210D0B2F1CC
:10546000804F0DD00F4B9A420AD00F4B9A4207D073
:105470000E4B9A4204D0AA4202D00D4B9A4204D15C
:1054800089682CF0800319439160002180F83D4029
:1054900080F83C100846F0BD0220F0BD000001403D
:1054A000000401400004004000080040000C0040DF
:1054B0000018004010B504464FF0020249B104291B
:1054C0000ED0082913D094F84700012816D00120E7
:1054D00010BD94F844000128F9D184F844200FE06D
:1054E00094F845000128F2D184F8452008E094F8AA
:1054F00046000128EBD184F8462001E084F84720DB
:105500000422206801F021FA2068094A416C41F424
:1055100000414164206881681140062906D0B1F538
:10552000803F03D0016841F001010160002010BDFF
:105530000700010070B50022044600680D4601F026
:1055400004FA206841F211118A10036A0B4206D155
:10555000036A134203D1436C23F40043436420687D
:10556000036A0B4206D1016A114203D1016821F09E
:10557000010101604FF001003DB1042D08D0082D5C
:1055800009D084F84700002070BD84F84400FAE791
:1055900084F84500F7E784F84600F4E710B5040006
:1055A00003D094F83D0010B107E0012010BD0020A9
:1055B00084F83C00204600F023F8022084F83D00E7
:1055C0002068211D01F052F9012084F8480084F878
:1055D0003E0084F83F0084F8400084F8410084F8DD
:1055E000420084F8430084F8440084F8450084F8BD
:1055F000460084F8470084F83D00002010BD0000FC
:1056000008B500680B49884212D10B48016841F087
:105610000101016000680022114600F001000090C5
:105620001920FDF7C7F9BDE808401920FDF7B5B905
:1056300008BD000000000140F044025890F83D1001
:10564000012901D0012070470B4A022180F83D104A
:105650000168CB6843F00103CB60006881681140AA
:10566000062906D0B1F5803F03D0016841F0010161
:1056700001600020704700000700010070B504467B
:1056800090F83C00012814D0394B012584F83C5097
:10569000022084F83D0022689068184020F47F4082
:1056A00090600868702828D010DC10F00F0F03D02D
:1056B0004BE04FF0020070BD4FEA2012072A44D29F
:1056C000DFE802F05151515149323A00B0F1101F58
:1056D00049D009DCB0F5805F37D0B0F5005F17D056
:1056E000B0F5801F31D13EE0A0F5801120393AD0CD
:1056F000102938D0202928D135E04A682068D1E91E
:10570000021301F02FF92068816841F0770109E068
:105710004A682068D1E9021301F024F92068816801
:1057200041F48041816010E0CA684968206801F056
:10573000B5FA2068502106E0CA684968206801F07F
:10574000BEFA2068602101F017F9002084F83D506E
:1057500084F83C0070BDCA684968206801F09EFA70
:1057600020684021EFE7226801461046EBE7000081
:1057700088FFCEFF10B590F83C20012A0CD0012202
:10578000022380F83D3004680023616180F83D20E9
:1057900080F83C30184610BD022010BD704770B52F
:1057A0000446006800250169C943890715D4C1680A
:1057B000C943890711D4EA1E0261012121772068BB
:1057C00080698007204602D0FFF7E8FF04E000F080
:1057D000DBF8204600F09AF9257720680169C94373
:1057E000490717D4C168C943490713D402216FF090
:1057F0000402026121772068806910F4407F20460E
:1058000002D0FFF7CBFF04E000F0BEF8204600F026
:105810007DF9257720680169C943090716D4C16855
:10582000C943090712D404216FF0080202612177ED
:105830002068C0698007204602D0FFF7AFFF04E070
:1058400000F0A2F8204600F061F925772068016990
:10585000C943C90617D4C168C943C90613D408216E
:105860006FF01002026121772068C06910F4407F58
:10587000204602D0FFF792FF04E000F085F82046B2
:1058800000F044F9257720680169C943C90708D1A8
:10589000C168C943C90704D1891E0161204600F0CF
:1058A000FBF920680169C943090609D4C168C943E5
:1058B000090605D46FF0800101612046FFF7ACFDB9
:1058C00020680169C943C90509D4C168C9430906EB
:1058D00005D46FF4807101612046FFF79CFD2068BC
:1058E0000169C943490609D4C168C943490605D4B9
:1058F0006FF040010161204600F0D8F9206801698D
:10590000C94389060BD4C168C943890607D46FF01F
:10591000200101612046BDE87040FFF77EBD70BDEB
:1059200010B586B0044614216846FBF79FF813496A
:10593000206888421FD11248016841F010010160BF
:10594000006800F0100005900D481030016841F02B
:105950000101016000680222032300F001000590AC
:10596000012081020091CDE90120CDE903300548F5
:105970006946FCF755FE06B010BD0000000001406E
:10598000E044025800100258704770B5044690F881
:105990003C000D4601280BD0012084F83C000C2A65
:1059A00045D007DC5AB1042A1BD0082A78D12CE054
:1059B000022070BD102A4ED0142A71D15DE02068FB
:1059C00000F0E4FF2068816941F0080181612068EE
:1059D000816921F00401816120682A69816911438C
:1059E00011E0206801F026F82068816941F4006127
:1059F00081612068816921F4806181612068296961
:105A0000826942EA012181614AE0206801F05EF882
:105A10002068C16941F00801C1612068C16921F0B5
:105A20000401C16120682A69C169114311E020683D
:105A300001F092F82068C16941F40061C1612068F9
:105A4000C16921F48061C16120682969C26942EAA3
:105A50000121C16124E0206801F0B4F82068416DA3
:105A600041F0080141652068416D21F00401416564
:105A700020682A69416D114311E0206801F0D8F8CF
:105A80002068416D41F4006141652068416D21F459
:105A90008061416520682969426D42EA01214165C2
:105AA000002084F83C0070BD10B5040003D094F8C9
:105AB0003D0010B107E0012010BD002084F83C003B
:105AC000204600F022F8022084F83D002068211DC5
:105AD00000F0CCFE012084F8480084F83E0084F8F1
