:020000040800F2
:100000004820002499030008D93A0008B5040008E4
:10001000B5040008D90D0008294A000800000000B6
:100020000000000000000000000000001D3D00086E
:10003000FD0F000800000000030400081F3D000839
:10004000B3030008B3030008B3030008B3030008B8
:10005000B3030008B3030008FF0F000851100008A5
:1000600065100008791000088D100008B30300081F
:10007000B3030008B3030008B3030008B303000888
:10008000B3030008B3030008B3030008B303000878
:10009000B3030008B3030008B3030008A11000086D
:1000A000B3030008B3030008B3030008B303000858
:1000B000B3030008B3030008B3030008B303000848
:1000C000B3030008B3030008B3030008B303000838
:1000D000B3030008B3030008B3030008B303000828
:1000E00013100008B303000800000000B303000869
:1000F000B3030008B3030008B3030008B303000808
:10010000B3030008B3030008493F0008B303000825
:10011000CD430008B3030008B3030008B30300088D
:10012000B3030008B3030008B3030008B3030008D7
:10013000B3030008B3030008B3030008B3030008C7
:1001400000000000000000000000000000000000AF
:10015000B3030008B3030008B3030008B3030008A7
:10016000B3030008B3030008B3030008B303000897
:10017000B3030008B3030008B30300080000000045
:10018000B3030008B3030008B3030008B303000877
:10019000B3030008B3030008B3030008B303000867
:1001A000B3030008B3030008B3030008B303000857
:1001B000B3030008B3030008B3030008B303000847
:1001C000B3030008B3030008B3030008B303000837
:1001D000B3030008B3030008B3030008B303000827
:1001E000B3030008B3030008B3030008B303000817
:1001F000B3030008B3030008B3030008B303000807
:10020000B3030008B3030008B3030008B3030008F6
:10021000B3030008B3030008B3030008B3030008E6
:10022000B3030008B3030008B30300080000000094
:10023000B3030008B303000800000000B303000884
:10024000B3030008B3030008B3030008B3030008B6
:10025000B3030008B3030008B3030008B3030008A6
:10026000B3030008B3030008B3030008B303000896
:10027000B3030008B3030008C13A000800000000FF
:10028000B3030008B3030008B30300080000000034
:1002900000000000B303000800F002F800F065F869
:1002A0000AA090E8000C82448344AAF10107DA45D1
:1002B00001D100F05AF8AFF2090EBAE80F0013F0BE
:1002C000010F18BFFB1A43F001031847EC2201008D
:1002D0000C2301000A444FF0000C10F8013B13F00E
:1002E000070408BF10F8014B1D1108BF10F8015B8F
:1002F000641E05D010F8016B641E01F8016BF9D182
:1003000013F0080F1EBF10F8014BAD1C0C1B09D1D8
:100310006D1E58BF01F801CBFAD505E014F8016B4A
:1003200001F8016B6D1EF9D59142D6D370470000DC
:100330000023002400250026103A28BF78C1FBD8EE
:10034000520728BF30C148BF0B6070471FB510F07F
:100350004FFC00F019FD04000020002110F032FCD9
:10036000401C60601FBD10B510BD00F0E8FC1146D8
:10037000FFF7ECFF00F02BFD00F018FD03B4FFF7D2
:10038000F2FF03BC00F01CFD002804D090FAA0F09E
:10039000B0FA80F0401C7047094880470948004780
:1003A000FEE7FEE7FEE7FEE7FEE7FEE7FEE7FEE725
:1003B000FEE7FEE704480549034A054B7047000085
:1003C000653E0008990200084810002448200024D7
:1003D00048100024EFF3108072B6704780F3108845
:1003E0007047424A1368012B04D04FF00103136099
:1003F0003F4A10603F4A11603F484FF08051016012
:100400007047EFF3108272B63848016851B34FF06D
:10041000000101603648016891B1EFF309811EF0D7
:10042000100F08BF21ED108B21E9F00F4FF00004F1
:100430001EF0100F08BF012441F8044D0068016050
:100440002C490968096808C9B1E8F00F002B18BFEA
:10045000B1EC108B81F309884EF0100E002B18BF01
:100460002EF0100E82F310884EF0040E70472149D2
:100470000860EFF3148222F0040282F314881C490E
:100480004FF00000086019494FF0010008601B4858
:100490001B49D0F8002041EA0201016016484FF0E4
:1004A0008051016017480068006880F3088861B6D1
:1004B00062B670471EF0040F0CBFEFF30880EFF335
:1004C000098020E9F00F40F804ED40F804ED1EF03B
:1004D000040F0CBF80F3088880F3098800B50CF086
:1004E000FFF95DF804EB4EF0040E7047180100248C
:1004F000100100241401002404ED00E020ED00E0D0
:100500000000FFFF08ED00E053EA020C00F06980F4
:100510002DE9F04B4FF00006002B1FBFB3FA83F517
:1005200003FA05F424FA05F65E4012BF1643B2FA48
:1005300082F502FA05F4C5F120051EBF22FA05FC7A
:1005400044EA0C04203556EA044C4FEA144418BF20
:10055000641C4FF000084FF00009904271EB030C4F
:1005600039D3002919BFB1FA81F701FA07F6B0FAB9
:1005700080F700FA07F6C7F120071EBF20FA07FC34
:1005800046EA0C062037B6FBF4FCA7EB0507103F44
:1005900007F01F0BCBF120060CFA0BFB2CFA06F62A
:1005A00044BFB3460026202FA4BF5E464FF0000B89
:1005B0005BEA060C08BF4FF0010B19EB0B09ABFB14
:1005C000027C48EB0608C01B06FB02CC0BFB03CCED
:1005D00071EB0C01C1E70B46024641464846BDE8B7
:1005E000F08B13B54FF000004FF00001AFF3008027
:1005F000BDE81C40704710B54C1084EA530404D584
:100600004042C1F1000138BF491E1B4204D552428D
:10061000C3F1000338BF5B1EFFF776FF14F0804F75
:1006200004D04042C1F1000138BF491E14F0004F10
:1006300004D05242C3F1000338BF5B1E10BD70B539
:10064000064600F0E5FA0468054630460A22002115
:1006500000F0E2FA2C6070BD30B505460B462A4624
:1006600013F8014B12F8010B08B1A042F8D01CB1ED
:10067000002802D06D1CF1E7284630BD40EA010396
:1006800010B59B070FD1042A0DD310C808C9121F3B
:100690009C42F8D020BA19BA884201D9012010BD75
:1006A0004FF0FF3010BD1AB1D30703D0521C07E042
:1006B000002010BD10F8013B11F8014B1B1B07D1A6
:1006C00010F8013B11F8014B1B1B01D1921EF1D117
:1006D000184610BD40EA0103024630B59B0710D111
:1006E0004FF0013400E008C208C91D1B9D4315EA04
:1006F000C41FF8D013F0FF0102F8011B0DD01B0A34
:10070000F8E711F8013B002B02F8013B05D011F886
:10071000013B002B02F8013BF3D130BD0022CBB2EC
:1007200010F8011B994200D1421E0029F8D1104651
:10073000704710B5431C02E010F8011B71B181072E
:10074000FAD14FF0013202C88C1A8C4314EAC2115C
:10075000F9D0C01A0A0603D0C01E10BDC01A10BDC1
:100760000A0401D0801E10BD0902FCD0401E10BD3D
:1007700040EA010370B59B072ED14FF00136042AE1
:100780002AD308C810C99D1B9D43121F15EAC61520
:1007900017D0D8B2E1B2401A50EA056110D198B230
:1007A000A1B2401A50EA05410AD123F07F4024F05B
:1007B0007F41401A50EA052102D1180EA0EB1460C7
:1007C00070BDA342DBD018BA21BA884201D90120FA
:1007D00070BD4FF0FF3070BD0AB9002070BD10F839
:1007E000013B11F8014B63B1A3420AD1521E08D05C
:1007F00010F8013B11F8014B1BB1A34201D1521E6D
:10080000EDD1181B70BD421E12F8013F002BFBD129
:1008100011F8013B002B02F8013BF9D17047032A84
:1008200040F2308010F0030C00F0158011F8013B0D
:10083000BCF1020F624498BF11F801CB00F8013BF4
:1008400038BF11F8013BA2F1040298BF00F801CBB8
:1008500038BF00F8013B11F0030300F02580083A8F
:10086000C0F0088051F8043B083A51F804CBA0E8E6
:100870000810F5E7121D5CBF51F8043B40F8043B3B
:10088000AFF30080D20724BF11F8013B11F801CB70
:1008900048BF11F8012B24BF00F8013B00F801CB41
:1008A00048BF00F8012B704710B5203AC0F00B800C
:1008B000B1E81850203AA0E81850B1E81850A0E864
:1008C0001850BFF4F5AF5FEA027C24BFB1E81850BE
:1008D000A0E8185044BF18C918C0BDE810405FEA2E
:1008E000827C24BF51F8043B40F8043B08BF7047AA
:1008F000D20728BF31F8023B48BF11F8012B28BFAF
:1009000020F8023B48BF00F8012B70474FF000026F
:100910000429C0F0128010F0030C00F01B80CCF111
:10092000040CBCF1020F18BF00F8012BA8BF20F87F
:10093000022BA1EB0C0100F00DB85FEAC17C24BFD3
:1009400000F8012B00F8012B48BF00F8012B70477D
:100950004FF0000200B5134694469646203922BF58
:10096000A0E80C50A0E80C50B1F12001BFF4F7AFA3
:10097000090728BFA0E80C5048BF0CC05DF804EB85
:10098000890028BF40F8042B08BF704748BF20F8F3
:10099000022B11F0804F18BF00F8012B704710B5E3
:1009A000044610F0030F08BF11F0030F40F015804C
:1009B0004FF0013E121FC0F20E8051F8043BA3EB32
:1009C0000E0C2CEA030C1CEACE1C08BF40F8043BBA
:1009D000F0D0A1F1040102F10402521E08DB11F86B
:1009E000013B002B00F8013BF7D11146FFF78EFFCA
:1009F000204610BD4FF0013C50F8042B51F8043B49
:100A00009A4215D1A2EB0C03934313EACC130BD1FA
:100A100050F8042B51F8043B9A4209D1A2EB0C0385
:100A2000934313EACC13E7D04FF00000704700BFA8
:100A3000D01A01BAB1FA81F101F0180122FA01F0DD
:100A4000CB40C1F12001DBB2C0B2C01A2CFA01F3D5
:100A5000D11A914311EAC311E6D1704710B503686A
:100A60001C1404EB21449BB289B2194494FBF2F3A9
:100A700002FB134394FBF2F401EB034393FBF2F10B
:100A800002FB113193FBF2F301E05B1E11440029DC
:100A9000FBDB016003EB044010BDF0B504464FF0F2
:100AA000FF3585B00068049060680290A0680390EC
:100AB000E068019020690090666906F18040B0F11D
:100AC000004F7CD83C22002104A8FFF7C7FF3C223E
:100AD000014602A8FFF7C2FF1822014603A8FFF74C
:100AE000BDFF411E40F2B55201A8FFF7B7FF0C222F
:100AF000074668460021FFF7B1FF414B00EB870036
:100B0000304400267B4411E0511A01910099491CA0
:100B10000229009102D00C2908D105E0810705D0F7
:100B20000199491C019101E0401C00960099019A2D
:100B3000595C9142E8DD0099012906D11C2A04D1B3
:100B4000810702D00221CDE90016A0F146018B29D0
:100B50003CD2DDE90061002202E09F5C521C394476
:100B6000B242FADB012E02DD820700D0491E40F2BC
:100B7000B55340F26D16C21700EB927292105A43B1
:100B800000F0030303FB062283070A4400D1521E30
:100B9000039E02EB4203049F06EBC303029EC3EBDA
:100BA000031306EB8303174E33441E149BB2C6EBAC
:100BB0000616C3EB0313B60007EB830300E005E062
:100BC00006EB134666F31F43360C02D0284605B0E9
:100BD000F0BD80C4029E40C4039E40C4019E761CAA
:100BE00044F80C6B009E44E902600720521C92FB03
:100BF000F0F600FB162084E823001846E7E7000023
:100C00006C0C0100A039CEFD7047704770470000A2
:100C100000487047E80F00242DE9F04791460F4641
:100C200080460446002614F8015B2DB100F030F830
:100C30000068405DC007F6D12B2D02D02D2D18D0B5
:100C4000641E4A463946204600F02AF827B1396822
:100C5000A14201D1C7F800804FF0020471050BD505
:100C60004042002803DDFFF7D3FF0460A007BDE882
:100C7000F08746F48066E4E70028F8DAFFF7C8FF5B
:100C800004606FF00040F2E700487047E80F00246E
:100C900010B500F079F8001D10BD00BF29FF00005D
:100CA0002DE9F05F824615468B4600270AF10104C4
:100CB000B9460078302801D09DB113E014F8010B3B
:100CC0000127782803D0582801D045B10AE00DB19A
:100CD000102D07D1002714F8010B102502E008257C
:100CE00000E00A250026B0460EE005FB080005FBE3
:100CF00006F101271FFA80F801EB1046B6F5803F98
:100D000000D3B94614F8010B294600F041F8002839
:100D1000EBDABBF1000F05D00FB1641E00E05446C2
:100D2000CBF80040B9F1000F06D0FFF771FF0221A8
:100D30000160C81EBDE8F09F48EA0640FAE7754624
:100D4000FFF7A2FFAE4605006946534620F00700B4
:100D5000854618B020B5FFF72DFBBDE820404FF0C9
:100D600000064FF000074FF000084FF0000B21F095
:100D70000701AC46ACE8C009ACE8C009ACE8C00962
:100D8000ACE8C0098D467047004870470810002441
:100D90003A2800D2303820F02002412A01D3A2F1B3
:100DA0003700884201D34FF0FF30704710B504463A
:100DB000AFF300802046BDE81040FFF7DFBA000027
:100DC00001491820ABBEFEE726000200704710B5AF
:100DD0000EF0B8FF002010BDFEE700002DE9F04F37
:100DE000804E804FDFF8FC911836DFF8F8A14837C5
:100DF0000468856D0AF1300ADFF8ECB14C45DFF884
:100E0000ECC1DFF8ECE16DD0B4426BD0544569D051
:100E1000BC4267D0DFF8D081A8F11808444561D002
:100E20005C455FD064455DD074455BD0DFF8C4811C
:100E3000444557D0DFF8BC8108F11808444551D02B
:100E4000DFF8B08108F1300844454BD0DFF8A481C9
:100E500008F14808444545D0DFF8988108F160085A
:100E600044453FD0DFF88C8108F17808444539D0FB
:100E7000DFF8808108F19008444533D0DFF87481B1
:100E800008F1A80844452DD0DFF86C81444529D0ED
:100E9000DFF8648108F11408444523D0DFF8588155
:100EA00008F1280844451DD0DFF84C8108F13C08C2
:100EB000444517D0DFF8408108F15008444511D06F
:100EC000DFF8348108F1640844450BD0DFF828814D
:100ED00008F17808444505D0DFF81C8108F18C083A
:100EE000444509D1D0E91948C4F80480C46E1CB146
:100EF000D0E91C48C4F8048004684C452ED0B442A4
:100F00002CD054452AD0BC4228D0374E183EB4428B
:100F100024D05C4522D0644520D074451ED0354E87
:100F2000B4421BD0334E1836B44217D0314E30364F
:100F3000B44213D02F4E4836B4420FD02D4E6036F7
:100F4000B4420BD02B4E7836B44207D0294E90369F
:100F5000B44203D0274EA836B44215D190F85C6055
:100F60003F2406F01F06B440AC600468256825F4F1
:100F7000802525602EE09A600068C160BDE8F08F92
:100F800099600068C260F9E71B4EB4421BD01A4E4C
:100F90001436B44217D0184E2836B44213D0164E29
:100FA0003C36B4420FD0144E5036B4420BD0124EE1
:100FB0006436B44207D0104E7836B44203D00E4E99
:100FC0008C36B442DAD190F85C60012406F01F063A
:100FD000B4406C60046863608368402B0368CFD1C1
:100FE000C9E700001000024088000240A000024053
:100FF000B80002401004024008540258704710B56F
:101000000BF028FF012000F08DFABDE810400BF036
:101010003FBF10B50BF01EFF4FF4806000F082FA66
:101020004FF4006000F07EFA4FF4805000F07AFA3E
:101030004FF4005000F076FA4FF4804000F072FA5E
:101040004FF4004000F06EFABDE810400BF020BFF6
:1010500010B50BF0FFFE022000F064FABDE810406E
:101060000BF016BF10B50BF0F5FE042000F05AFA95
:10107000BDE810400BF00CBF10B50BF0EBFE0820E4
:1010800000F050FABDE810400BF002BF10B50BF0B5
:10109000E1FE102000F046FABDE810400BF0F8BE6B
:1010A00010B50BF0D7FE202000F03CFA402000F0F5
:1010B00039FA802000F036FA4FF4807000F032FAEE
:1010C0004FF4007000F02EFABDE810400BF0E0BEC7
:1010D0002DE9F84F04008C464FF00000009013D02B
:1010E00094F83400012811D094F8355001200021E3
:1010F00084F83400012D0BD084F83410C202009023
:1011000062650098BDE8F88F0120FBE70220F9E74F
:101110008C4D0226206884F83560A8428A4D6165AE
:101120008A4E8B4FDFF82C82DFF82C92DFF82CA24E
:10113000DFF82CB226D0A84224D0B04222D0B84248
:1011400020D040451ED048451CD050451AD05845A7
:1011500018D08449884215D082491831884211D06C
:101160008049303188420DD07E494831884209D0CB
:101170007C496031884205D07A497831884201D073
:1011800078499031016821F00101016061462046F3
:10119000FFF724FE6B49206888422CD0A8422AD051
:1011A000B04228D0B84226D0404524D0484522D06D
:1011B000504520D058451ED06A4A90421BD0694AFB
:1011C0001832904217D0674A3032904213D0654AA5
:1011D000483290420FD0634A603290420BD0614A4D
:1011E0007832904207D05F4A9032904203D05D4AF5
:1011F000A83290420CD1026822F01E0242F0160280
:101200000260206C88B12068026842F008020BE09E
:10121000026822F00E0242F00A020260206C20B145
:101220002068026842F004020260206888424BD0C5
:10123000A84249D0B04247D0B84245D0404543D0FB
:10124000484541D050453FD058453DD0454A904251
:101250003AD0444A1832904236D0424A3032904214
:1012600032D0404A483290422ED03E4A60329042BC
:101270002AD03C4A7832904226D03A4A9032904264
:1012800022D0384AA83290421ED0374A90421BD012
:10129000354A1432904217D0334A2832904213D044
:1012A000314A3C3290420FD02F4A503290420BD0FC
:1012B0002D4A6432904207D02B4A7832904203D0B4
:1012C000294A8C3290420DD1206E0268D20303D598
:1012D000026842F480720260E06E18B1026842F463
:1012E000807202602068884226D0A84224D0B04292
:1012F00022D0B84220D040451ED048451CD0504591
:101300001AD0584518D01749884215D015491831B8
:10131000884211D01349303188420DD011494831EB
:10132000884209D00F496031884205D00D49783193
:10133000884201D00B499031016841F00101016000
:10134000DFE600001000024028000240400002409A
:10135000580002407000024088000240A000024095
:10136000B8000240100402400854025870B5044608
:1013700000F00CFA0546601C02D0044800780444D2
:1013800000F004FA401BA042FAD370BD080000240C
:101390002DE9F04F4F4D00224FF0010A4FF00F0B97
:1013A00092E000BF0AFA02F919EA01037ED022F0A6
:1013B000030606F1B0469407D6F808C4270FDFF8F5
:1013C00018810BFA07FE40450EEA0C0402D14FF0DB
:1013D000000C40E0DFF804C1604502D14FF0010C81
:1013E00039E0DFF8FCC0604502D14FF0020C32E07A
:1013F000DFF8F0C0604502D14FF0030C2BE0DFF8BE
:10140000E8C0604502D14FF0040C24E0DFF8DCC0F6
:10141000604502D14FF0050C1DE0DFF8D4C06045F7
:1014200002D14FF0060C16E0DFF8C8C0604502D1CB
:101430004FF0070C0FE0DFF8C0C0604502D14FF05D
:10144000080C08E0DFF8B4C0604502D14FF0090C89
:1014500001E04FF00A0C0CFA07FCA44513D12C68EC
:101460009C432C606F684FF0B0449F436F602768C7
:101470009F43276067689F436760D6F8084424EA63
:101480000E04C6F8084407680323D4084FEA42084C
:101490004FEA427C03FA08F34FEADC6C1F43076013
:1014A0000BFA0CF600EB8404276A00E00BE0B7436C
:1014B0002762C4689C43C460446824EA0904446009
:1014C00084689C438460521C31FA02F37FF46AAF53
:1014D000BDE8F08F80000058000002580004025858
:1014E00000080258000C025800100258001402585C
:1014F00000180258001C025800200258002402580C
:1015000010B503F03BFD00EB4001054800EB810006
:101510004168002903D08068BDE81040084710BD2D
:10152000500200244FF0B04110B5D1F8882002429B
:1015300003D0C1F88800FFF7E3FF10BD2DE9FC4F91
:1015400001257E4C00234FF0030A4FF0B04E4FF0C0
:101550000F0BEBE005FA03F637403A0077D04F68FF
:10156000012F05D0022F03D0112F01D0122F1AD135
:1015700087684FEA4308D1F80CC00AFA08F927EA4D
:1015800009070CFA08FC4CEA070CC0F808C04768C9
:1015900091F804C0B743CCF3001C0CFA03FC4CEAEE
:1015A000070CC0F804C0C6684FEA430CD1F80880A5
:1015B000E1460AFA0CF7BE43019708FA09F848EA2F
:1015C0000608C0F80C804E68022E01D0122E12D1EF
:1015D000DE084FEA437C00EB860600960F69366A08
:1015E0004FEADC6C0BFA0CF807FA0CF726EA08064F
:1015F0003743009E37620E790768DDF804C006F0B5
:10160000030606FA09F627EA0C073E4306604E6811
:10161000F6001CD54A4E376847F002073760366837
:101620009F0706F00206009623F0030606F1B04677
:10163000B1463F0FD6F80864DFF808810BFA07FCC3
:10164000404526EA0C0603D14FF0000C41E06CE067
:10165000DFF8F4C0604502D14FF0010C39E0DFF84B
:10166000ECC0604502D14FF0020C32E0DFF8E0C080
:10167000604502D14FF0030C2BE0DFF8D8C0604585
:1016800002D14FF0040C24E0DFF8CCC0604502D159
:101690004FF0050C1DE0DFF8C4C0604502D14FF0EB
:1016A000060C16E0DFF8B8C0604502D14FF0070C19
:1016B0000FE0DFF8B0C0604502D14FF0080C08E041
:1016C000DFF8A4C0604502D14FF0090C01E04FF0F3
:1016D0000A0C0CFA07FC4CEA060CC9F808C4266888
:1016E0004F6826EA0206FF0300D5164326606668A7
:1016F0004F6826EA0206BF0300D516436660D1F89C
:1017000004C07646DEF800705FEACC2C27EA0207B8
:1017100000D517433760D1F804C077685FEA8C2C96
:1017200027EA020700D5174377605B1C0A68174653
:10173000DA407FF40FAFBDE8FC8F00008000005856
:10174000F4440258000002580004025800080258ED
:10175000000C0258001002580014025800180258D9
:10176000001C02580020025800240258006908405A
:1017700000D0012070470AB1816170470904FBE77E
:1017800001480068000C70470010005C0148806848
:101790007047000008000024024881680278114464
:1017A0008160704708000024032010B500F0B0F8F5
:1017B00001F072F80F4A104914681368C4F3032249
:1017C00003F00F038A5CC95C02F01F0201F01F01E5
:1017D000D0400A4A20FA01F111600949086000204E
:1017E00000F010F808B1012010BD00F045F800200D
:1017F00010BD000018440258FA0B01080400002430
:101800000000002410B50022014632208AB000F00A
:101810005FF8322000F04FF81348016841F00801EA
:101820000160006808A900F008000990684600F00F
:10183000BFFF01F00DF80D49400000220C4CB0FB39
:10184000F1F10C4840F2E7330460C0E90332491E6D
:10185000C0E9011201F06CFC10B101200AB010BD0A
:10186000044801F0B5FCF9E7E844025840420F0093
:10187000000C0040E0030024054808B5016841F071
:1018800002010160006800F00200009008BD000045
:10189000F444025800280DDB410900F01F028900C2
:1018A000012001F1E0219040C1F88001BFF34F8F8A
:1018B000BFF36F8F7047002809DB410900F01F025A
:1018C0008900012001F1E0219040C1F8000170473A
:1018D0000E4BF0B41B680D46C3F30223C3F1070699
:1018E000042E00D90426191D072901D2002300E087
:1018F000DB1E012404FA06F19C40491E2940641EA7
:10190000994014402143F0BC03F08FB80CED00E087
:10191000064900F0070210B54FF6FF040868044BB3
:10192000204040EA02201843086010BD0CED00E0A2
:101930000000FA05134970B50A68D243520705D56D
:10194000096801F00701814213D118E00A6822F00A
:10195000070202430A60FFF719FF0A4D4FF47A7637
:101960000446083D07E000BFFFF710FF001BB04230
:1019700001D9012070BD2868C0438004F4D4002040
:1019800070BD00000C4802580248016841F08071A7
:10199000016070470C4802580248016841F48071A8
:1019A000016070470048025810B500F075FF0B4AFF
:1019B0000B4914681368C4F3032203F00F038A5C15
:1019C000C95C02F01F0201F01F01D040054A20FA55
:1019D00001F111600449086010BD0000184402586C
:1019E000FA0B0108040000240000002410B500F0E8
:1019F0000DFF05490968054AC1F30211515C01F068
:101A00001F01C84010BD000020440258FA0B010815
:101A1000494930B5484C0B1D0A68143409681D68E3
:101A2000246802F00303C5F30012C1F30531C4F3C7
:101A3000CC04002914FB02F200EE102AF8EE400A52
:101A400075D03F4A9FED3D1AB7EE000A6BB1DFED4E
:101A50003D1A012B01D0022B64D002EE101A11683E
:101A6000F8EE422A81EEA22A21E0334C283C23687A
:101A70009B0612D5344B246801EE901A1168C4F30A
:101A8000C104F8EE612AE34001EE903AC1F3080187
:101A9000F8EE611A81EEA22A0BE001EE901ADFED5A
:101AA0002B2A00BFF8EE611A116882EEA12AC1F359
:101AB000080101EE901A1168F8EE611A40EE811AE1
:101AC00071EE800A62EE200AC1F3462101EE101A7F
:101AD000B8EE411A31EE001AC0EE811ABCEEE11ADE
:101AE00080ED001A1168C1F3064101EE101AB8EE3C
:101AF000411A31EE001AC0EE811ABCEEE11A80EDF7
:101B0000011A1168C1F3066101EE101AB8EE411A0C
:101B100031EE000A80EE801ABCEEC10A80ED020AA6
:101B200030BD04E001EE901ADFED092ABAE700218A
:101B3000016041608160F3E72844025800000039E9
:101B4000384402580024744A0090D0030024744C96
:101B500020BCBE4B494930B5484C0B1D0A681C34AB
:101B600009681D68246802F00303C5F30022C1F36D
:101B70000551C4F3CC04002914FB02F200EE102A34
:101B8000F8EE400A75D03F4A9FED3D1AB7EE000AC5
:101B90006BB1DFED3D1A012B01D0022B64D002EEB8
:101BA000101A1168F8EE422A81EEA22A21E0334C85
:101BB000283C23689B0612D5344B246801EE901A0A
:101BC0001168C4F3C104F8EE612AE34001EE903AD3
:101BD000C1F30801F8EE611A81EEA22A0BE001EED2
:101BE000901ADFED2B2A00BFF8EE611A116882EE21
:101BF000A12AC1F3080101EE901A1168F8EE611AEA
:101C000040EE811A71EE800A62EE200AC1F346218D
:101C100001EE101AB8EE411A31EE001AC0EE811A28
:101C2000BCEEE11A80ED001A1168C1F3064101EE25
:101C3000101AB8EE411A31EE001AC0EE811ABCEE4D
:101C4000E11A80ED011A1168C1F3066101EE101A64
:101C5000B8EE411A31EE000A80EE801ABCEEC10ADD
:101C600080ED020A30BD04E001EE901ADFED092A92
:101C7000BAE70021016041608160F3E7284402581F
:101C800000000039404402580024744A0090D003F8
:101C90000024744C20BCBE4B2DE9FC5F044650F878
:101CA000241B002500902E460801FE4FDFF8F88324
:101CB0001DD5606E50B1B0F5801F0CD0B0F5001F7F
:101CC0000ED0B0F5401F1DD001250FE0386840F45C
:101CD0000030386016E00221201D01F0FFFE03E015
:101CE0000098022101F08AFF05000BD02E462088C3
:101CF000C00523D5606D05281ED2DFE800F00C1169
:101D0000161B1B00626ED8F8001021F4401111431D
:101D1000C8F80010EBE7386840F40030386009E09C
:101D20000021201D01F0DAFE03E00098002101F0FF
:101D300065FF05466DB100E001252E46208880052F
:101D400028D5A06D80281ED00CDC90B140280ED183
:101D500014E0626DD8F8001021F007011143C8F8B3
:101D60000010EBE7C02813D0B0F5807F10D001251C
:101D70000FE0386840F40030386009E00021201D91
:101D800001F0ACFE03E00098002101F037FF0546AA
:101D900095B12E462088DFF81093400509F1080917
:101DA0002CD5D4F8A400B0F5800F20D00DDCA0B164
:101DB000B0F5001F0FD115E0A26DD8F8001021F486
:101DC000E0711143C8F80010E4E7B0F5C00F13D07C
:101DD000B0F5000F10D001250FE0386840F4003056
:101DE000386009E00021201D01F078FE03E0009832
:101DF000002101F003FF054675B12E46208800053D
:101E00002DD5D4F8A800B0F1007F21D00EDCA8B108
:101E1000B0F1807F10D116E0D4F8A420D9F80010DA
:101E200021F460011143C9F80010E7E7B0F1407FE9
:101E300013D0B0F1806F10D001250FE0386840F466
:101E40000030386009E00021201D01F047FE03E06A
:101E50000098002101F0D2FE05466DB12E462068A3
:101E600080011FD5A06CD8B110280FD0202812D027
:101E7000302815D0012514E0D4F8A820D9F8001096
:101E800021F0E0611143C9F80010E8E7386840F438
:101E90000030386004E00221201D01F01FFE0546DD
:101EA0006DB12E462088C0042BD5E06DB0F5005FE3
:101EB00020D00DDCA0B1B0F5805F0FD115E07A48DD
:101EC000A26C001F016821F0300111430160E9E7B5
:101ED000B0F5405F13D0B0F5804F10D001250FE072
:101EE000386840F40030386009E00021201D01F01E
:101EF000F5FD03E00098002101F080FE054685B164
:101F00002E462088800429D5206EB0F5403F23D08E
:101F100010DC08B3B0F5803F14D0B0F5003F0FD10E
:101F200015E0E26DD8F8001021F4E0411143C8F843
:101F30000010E6E7B0F5802F0ED0B0F5A02F0BD043
:101F400001250AE00121201D01F0C8FD03E00098F1
:101F5000012101F053FE05468DB12E462088400434
:101F60002AD5D4F8AC00B0F1405F23D010DC08B320
:101F7000B0F1805F14D0B0F1005F0FD115E0226E98
:101F8000D8F8001021F4E0211143C8F80010E5E76B
:101F9000B0F1804F0ED0B0F1A04F0BD001250AE078
:101FA0000121201D01F09AFD03E00098012101F0BC
:101FB00025FE05466DB12E46208800041FD5E06E33
:101FC000D8B1B0F1805F0ED0B0F1005F10D0012524
:101FD00014E0D4F8AC20D9F8001021F0E04111430E
:101FE000C9F80010E8E7386840F40030386004E0D1
:101FF0000121201D01F072FD05466DB12E462068BD
:10200000C0011ED5606CD0B101280ED0022811D0BD
:10201000032814D0012513E0E26ED8F8001021F057
:1020200040511143C8F80010E9E7386840F4003027
:10203000386004E00221201D01F050FD054685B105
:102040002E462068DFF85CB04002ABF11C0B57D580
:102050001648016841F480710160FFF797FB8246E2
:102060000EE01148626C001F016821F0030111436A
:102070000160E6E7FFF78AFBA0EB0A0064283DD881
:102080000A480068C005F5D57DBBDFF81CA0B4F890
:10209000B0100AF1200ADAF8000001F4407100F4EF
:1020A000407005E02C440258504402580048025841
:1020B000884211D0DAF80010DAF8002021F44071DB
:1020C00042F48032CAF80020DAF8002022F480328C
:1020D000CAF80020CAF80010D4F8B000B0F5807F2C
:1020E00021D1FFF753FB019019E008E0FFF74EFB09
:1020F0000199411A41F28830814210D903252E46B8
:102100002078DFF830A4C0073DD0A06F182838D061
:1021100026DC80B3082829D0102825D12CE0DAF855
:1021200000008007E2D5D4F8B010C1F301200328E5
:1021300058460DD0016821F47C510160B4F8B020FC
:10214000DAF80010C2F30B021143CAF80010D7E707
:10215000F94A036802EA111223F47C511143ECE7B7
:1021600020280ED028280CD001250BE00121201DAD
:1021700001F0B4FC04E004E00098012101F03EFD10
:1021800005465DB12E46207880071ED5606F062873
:1021900019D2DFE800F0160C11161616A26FDAF845
:1021A000001021F038011143CAF80010EBE70121BB
:1021B000201D01F093FC03E00098012101F01EFDB9
:1021C000054675B100E001252E46207840071FD551
:1021D000D4F89000062819D2DFE800F0160C11168A
:1021E0001616626FDAF8001021F007011143CAF8E1
:1021F0000010EAE70121201D01F070FC03E00098C7
:10220000012101F0FBFC05469DB100E001252E46B1
:10221000207880062BD5D4F88C00B0F1405F24D014
:1022200011DC10B3B0F1805F15D0B0F1005F10D1B8
:1022300016E0D4F89020D9F8001021F007011143DE
:10224000C9F80010E4E7B0F1804F0ED0B0F1A04F14
:102250000BD001250AE00021201D01F03FFC03E026
:102260000098022101F0CAFC05468DB12E46207867
:1022700040062BD5D4F89800B0F5406F24D011DC7F
:1022800010B3B0F5806F15D0B0F5006F10D116E027
:10229000D4F88C20DAF8001021F0E0411143CAF89C
:1022A0000010E4E7B0F5805F0ED0B0F5A05F0BD072
:1022B00001250AE00021201D01F010FC03E0009838
:1022C000022101F09BFC05468DB12E4620780006C8
:1022D0002BD5D4F89C00B0F5C04F24D011DC10B33E
:1022E000B0F5005F15D0B0F5804F10D116E0D4F8EE
:1022F0009820D9F8001021F4E0511143C9F80010DA
:10230000E4E7B0F5004F0ED0B0F5204F0BD001251B
:102310000AE00021201D01F0E1FB03E0009802210A
:1023200001F06CFC05464DB12E46207800071ED505
:10233000D4F88000B0F5805F0AD00FE0D4F89C207C
:10234000D9F8001021F460411143C9F80010ECE7FE
:102350000098022101F052FC00B10126D4F880203F
:10236000DAF8001021F440511143CAF80010207827
:10237000C00613D5D4F89400B0F5807F05D100983D
:10238000022101F03BFC00B10126D4F89420D9F8D9
:10239000001021F440711143C9F8001020680003B7
:1023A00016D5D4F8A00038B1B0F5803F09D0B0F50B
:1023B000003F0BD001250AE00021201D01F08EFB1B
:1023C00003E00098022101F019FC054685B12E4674
:1023D0002068400322D5D4F88400B0F5801F11D0C6
:1023E000B0F5001F13D0B0F5401F15D0012514E043
:1023F000D4F8A020D9F8001021F440311143C9F8D5
:102400000010E5E7386840F40030386004E00098D8
:10241000012101F0F3FB054655B12E462068C003AB
:102420001CD5E06C70B1B0F5803F10D0012514E0F0
:10243000D4F88420DAF8001021F440111143CAF8CE
:102440000010EBE7386840F40030386004E0022107
:10245000201D01F043FB0546CDB12E4620688000CB
:1024600005D50098022101F0C9FB00B101262068C2
:1024700080031BD5E06FB8B1B0F5807F10D0B0F508
:10248000007F11D0B0F5407F0ED001250DE0294826
:10249000E26C0838016821F4803111430160DDE706
:1024A000386840F400303860F5B32E462068C0022A
:1024B00007D5226FD8F8001021F000411143C8F869
:1024C00000102068C00008D5D4F8B420DBF8001054
:1024D00021F480411143CBF800102068800207D519
:1024E000A26ED8F8001021F080711143C8F80010D6
:1024F000206840000CD5DBF8001021F40041CBF837
:102500000010DBF80010D4F8B8201143CBF800100D
:102510002068002807DA0748226D0838016821F092
:1025200040511143016000E008E086B10120BDE8A0
:10253000FC9F000054440258CFFFFF00E26FDAF81E
:10254000001021F440711143CAF80010AEE70020DA
:10255000EDE700002DE9F05F04000F467ED0DFF8C4
:102560003882D8F8000000F00F00B8420CD2D8F83A
:10257000001021F00F013943C8F80010D8F800000E
:1025800000F00F00B84269D12078844D40070AD589
:102590002069296801F07001884204D9296821F076
:1025A00070010143296020787C4E361D00070AD552
:1025B0006069316801F07001884204D9316821F006
:1025C0007001014331602078C0060AD5A0693168E6
:1025D00001F4E061884204D9316821F4E0610143EB
:1025E00031602078DFF8B4B180060BF1080B0CD510
:1025F000E1695846DBF8002002F07002914204D9EC
:10260000026822F070020A430260207880070AD52F
:10261000E068296801F00F01884204D9296821F097
:102620000F01014329602078C0073ED05B49A268B2
:102630002868183920F47060104328606068022808
:1026400018D0032819D00968012819D04907002992
:102650004ADADFF848A1AAF1080A00E044E0DAF813
:10266000002022F007020243CAF80020FFF78EF88C
:10267000814612E009688903E9E709688901E6E70C
:10268000C905E4E7FFF782F8A0EB090141F28830C1
:10269000814202D90320BDE8F09F6168DAF80000AA
:1026A00000F03800B0EBC10FECD1207880070AD5DC
:1026B000E068296801F00F01884204D2296821F0FE
:1026C0000F0101432960D8F80010404601F00F01C6
:1026D000B9420BD9016821F00F013943016000684C
:1026E00000F00F00B84201D00120D4E72078400765
:1026F0000AD52069296801F07001884204D229684E
:1027000021F0700101432960207800070AD5606933
:10271000316801F07001884204D2316821F0700103
:10272000014331602078C0060AD5A069316801F400
:10273000E061884204D2316821F4E06101433160F4
:10274000207880060CD5E1695846DBF8002002F0BD
:102750007002914204D2026822F070020A430260C1
:1027600000F09AF80E492A682B68C2F3032203F09E
:102770000F038A5CC95C02F01F0201F01F01D04008
:10278000084A20FA01F1116007490860074800680B
:10279000BDE8F05FFFF736B8002000521844025839
:1027A000FA0B010804000024000000240C0000249F
:1027B00070B5144C3F220260124A24680832131D7F
:1027C000114D04F00704446016681C1D06F4706681
:1027D0008660166806F00F06C660126802F0700286
:1027E00002611A6802F0700242611A6802F4E06243
:1027F0008261226802F07002C261286800F00F0056
:10280000086070BD104402580020005230B500F03E
:1028100043F80B4A0B490C4B15681468C5F30322A7
:1028200004F00F048A5C095D02F01F0201F01F0131
:10283000D040064A20FA01F119601060084630BD08
:1028400018440258FA0B0108040000240000002478
:1028500000B5FFF7DBFF05490968054AC1F302111E
:10286000515C01F01F01C84000BD00001C4402582B
:10287000FA0B010800B5FFF7C9FF05490968054AC9
:10288000C1F30221515C01F01F01C84000BD0000EE
:102890001C440258FA0B0108454970B545480968BF
:1028A000434B103B11F0380208D00111082A03D025
:1028B000102A0BD0182A0BD0084670BD196889065B
:1028C000FBD51968C1F3C101C84070BD3A4870BD5D
:1028D0003749374D18310C1D24350A6809682668B8
:1028E0002D6802F0030406F00102C1F30511C5F3DF
:1028F000CC0515FB02F200EE102AB8EE400AE9B34F
:102900002F4ADFED2E0AB7EE001A6CB1DFED2D1A5B
:10291000012C01D0022C43D002EE101A1068F8EE00
:10292000422A81EEA22A1EE01C68A40611D51B686B
:1029300001EE901A1168C3F3C103F8EE612AD84082
:1029400001EE900AC1F30800F8EE611A81EEA22AA6
:102950000BE001EE901ADFED1C2A00BFF8EE611AC1
:10296000106882EEA12AC0F3080001EE900AF8EE8A
:10297000611A40EE201A31EE810A00E015E022EEE5
:10298000000A1068C0F34620401C00EE900AF8EEE2
:10299000600A80EE201ABCEEC10A10EE100A70BD6B
:1029A00001EE901ADFED092AD8E7002070BD000083
:1029B000104402580090D00340787D010000003997
:1029C000304402580024744A0024744C20BCBE4B8E
:1029D000F0B50D461F49204C002887B016464FF031
:1029E00000004FF002020F684FF0030319D047F0C8
:1029F00004070F60096801F00401059111020091BC
:102A0000CDE90120CDE9033014486946FEF796FD73
:102A1000206845EAC61120F07E400843206007B0D8
:102A2000F0BD47F001070F60096801F00101059151
:102A30004FF480710091CDE90120CDE903300848C1
:102A40006946FEF77BFD2068354320F0FE70284381
:102A5000E4E70000E044025810440258000802581D
:102A6000000002582DE9F05F04007CD0FF4F207871
:102A7000FE4D1837DFF8F493103DC00748D0D9F861
:102A80000000396800F03800102815D0182803D14C
:102A900001F0030002280FD06068B0F5803F12D02B
:102AA00010B1B0F5A02F18D0286820F4803028602D
:102AB000286820F4802009E02868800328D5606811
:102AC0000028D2D024E0286840F480302860606874
:102AD00088B1FEF75BFE064609E0286840F48020D6
:102AE0002860F0E7FEF752FE801B64287ED8286835
:102AF0008003F7D50CE0FEF749FE064605E000BF6F
:102B0000FEF744FE801B6428F0D828688003F7D4C1
:102B1000207841F20308D54E0C3E800753D5D9F8F2
:102B20000000396810F038000ED0182801D188074D
:102B30000AD0E068A8B3296821F01901014329608F
:102B4000FEF724FE82461BE02868400702D5E068B5
:102B500000288AD0FEF714FE40451BD82069402883
:102B600012D0316800E0CCE021F47C3141EA003041
:102B7000306028E0FEF70AFEA0EB0A000228B5D874
:102B800028684007F6D5E5E7306820F47C3040F44B
:102B90000030EDE7207C316821F0FE4141EA006021
:102BA000E6E7FFE7286820F001002860FEF7EEFD69
:102BB000824605E0FEF7EAFDA0EB0A00022895D860
:102BC00028684007F6D42078C0065FD5D9F8000001
:102BD000DFF898B2396800F03800ABF1040B082830
:102BE00012D0182805D101F0030000E0EAE0012826
:102BF0000AD0E0690028286838D040F080002860BA
:102C0000FEF7C4FD824623E02868C00523D5E069AD
:102C1000802876D11FE0206A202821D0316821F059
:102C2000F84141EA8060306030E000BF94F8201045
:102C3000DBF8002022F07C5242EA0161CBF8001060
:102C400024E000BFFEF7A2FDA0EB0A00022896D800
:102C50002868C005F6D5FEF793FD4045E6D8DAE7CB
:102C6000306820F0F84040F08040DCE720F0800041
:102C70002860FEF78BFD064605E000BFFEF786FDE7
:102C8000801B02289BD82868C005F7D4207800074D
:102C900029D576486169643000298046016811D0E1
:102CA00041F001010160FEF771FD064605E000BF3D
:102CB000FEF76CFD801B0228C9D8D8F800008007F9
:102CC000F6D510E021F001010160FEF75FFD064638
:102CD00005E000BFFEF75AFD801B022872D8D8F825
:102CE00000008007F6D42078800623D5A06900284C
:102CF000286810D040F480502860FEF747FD064653
:102D000005E02CE1FEF742FD801B02285AD8286816
:102D10008004F7D50EE020F480502860FEF736FDE1
:102D2000064604E0FEF732FD801B02284AD82868D8
:102D30008004F7D4207840074FD5DFF83481D8F8E5
:102D4000001041F48071C8F80010FEF71FFD064620
:102D500005E000BFFEF71AFD801B642832D8D8F8C2
:102D60000000C005F6D5414EA068603601280AD0A3
:102D700008B1052813D0306820F0010030603068B9
:102D800020F0040002E0306840F001003060A068EC
:102D900041F2883A90B1FEF7F9FC80460AE03068CB
:102DA00040F004003060EEE7FEF7F0FCA0EB080115
:102DB000514507D830688007F6D50EE0FEF7E6FCEF
:102DC000804607E084E000BFFEF7E0FCA0EB0801CE
:102DD00051457DD830688007F6D4606AF0B3DFF8DB
:102DE0008C80D9F8001008F12008C1F3C201032932
:102DF0006FD00228286820F08070286003D0FEF78A
:102E0000C5FC044680E0FEF7C1FC064605E000BFB5
:102E1000FEF7BCFC801B022873D828688001F7D419
:102E2000E26A40F2F331386854F8283F884340EAB8
:102E3000021018433860217B4FF4FE0C22894FF0BA
:102E4000FE47208A4902267D521E401EA1F50071D0
:102E500089B20CEA0040C2F3080200E081E01143AD
:102E6000761E0143014807EA066203E01044025857
:102E7000004802581C3011433B4AC8F80010016852
:102E800021F00101016011684FF6F876236AB14321
:102E900041EAC30111600168A26921F00C011143EC
:102EA00001600168E26921F00201114301600168DB
:102EB00041F480310160016841F400310160016832
:102EC00041F480210160016841F00101016001E0ED
:102ED00017E01DE0286840F080702860FEF756FC7F
:102EE000044604E0FEF752FC001B022809D82868BB
:102EF0008001F7D535E000BFFEF748FC001B022833
:102F000002D90320BDE8F09F28688001F4D428E0AE
:102F100039680128D8F8000021D0A26A01F0030323
:102F200093421CD1E26AC1F305118A4217D1216B89
:102F3000C0F30802491E8A4211D1616BC0F34622D8
:102F4000491E91420BD1A16BC0F30642491E91422A
:102F500005D1E16BC0F30660491E814201D001201A
:102F6000D0E70020CEE700003444025804284FF098
:102F7000E020016903D021F004010161704741F0B4
:102F80000401FAE7401EB0F1807F10B501D30120A3
:102F900010BD4FF0E02460610F21601701F045FD86
:102FA0000020A0610721216110BD70477047704764
:102FB000F0B590F83C20012A38D01D4E012480F84D
:102FC0003C40022280F83D2002681A4D5368B2420C
:102FD000D2F808C001D0AA4203D14F6823F470038D
:102FE0003B430F6823F070031F4357600268B242EF
:102FF00010D0B2F1804F0DD00F4B9A420AD00F4B38
:103000009A4207D00E4B9A4204D0AA4202D00D4BEE
:103010009A4204D189682CF0800319439160002101
:1030200080F83D4080F83C100846F0BD0220F0BD1D
:10303000000001400004014000040040000800407E
:10304000000C00400018004010B504464FF002028A
:1030500049B104290ED0082913D094F8470001285B
:1030600016D0012010BD94F844000128F9D184F84D
:1030700044200FE094F845000128F2D184F845205F
:1030800008E094F846000128EBD184F8462001E0DE
:1030900084F847200422206800F0CBFF2068094A0A
:1030A000416C41F400414164206881681140062967
:1030B00006D0B1F5803F03D0016841F00101016005
:1030C000002010BD0700010070B500220446006812
:1030D0000D4600F0AEFF206841F211118A10036A1C
:1030E0000B4206D1036A134203D1436C23F400431D
:1030F00043642068036A0B4206D1016A114203D17E
:10310000016821F0010101604FF001003DB1042D83
:1031100008D0082D09D084F84700002070BD84F83D
:103120004400FAE784F84500F7E784F84600F4E73E
:1031300010B5040003D094F83D0010B107E0012061
:1031400010BD002084F83C00204600F023F8022047
:1031500084F83D002068211D00F0FCFE012084F869
:10316000480084F83E0084F83F0084F8400084F86A
:10317000410084F8420084F8430084F8440084F855
:10318000450084F8460084F8470084F83D0000209C
:1031900010BD000008B500680B49884212D10B48E9
:1031A000016841F00101016000680022114600F051
:1031B000010000901920FEF78BFBBDE808401920A4
:1031C000FEF779BB08BD000000000140F044025842
:1031D00090F83D10012901D0012070470B4A0221CF
:1031E00080F83D100168CB6843F00103CB600068B4
:1031F00081681140062906D0B1F5803F03D00168EF
:1032000041F001010160002070470000070001004B
:1032100070B5044690F83C00012814D0394B0125C4
:1032200084F83C50022084F83D00226890681840E1
:1032300020F47F4090600868702828D010DC10F0DF
:103240000F0F03D04BE04FF0020070BD4FEA201289
:10325000072A44D2DFE802F05151515149323A0075
:10326000B0F1101F49D009DCB0F5805F37D0B0F560
:10327000005F17D0B0F5801F31D13EE0A0F580117E
:1032800020393AD0102938D0202928D135E04A6891
:103290002068D1E9021300F0D9FE2068816841F06E
:1032A000770109E04A682068D1E9021300F0CEFEF8
:1032B0002068816841F48041816010E0CA684968F3
:1032C000206801F05FF82068502106E0CA6849686C
:1032D000206801F068F82068602100F0C1FE00203D
:1032E00084F83D5084F83C0070BDCA684968206885
:1032F00001F048F820684021EFE7226801461046B7
:10330000EBE7000088FFCEFF10B590F83C20012AC3
:103310000CD00122022380F83D3004680023616153
:1033200080F83D2080F83C30184610BD022010BDCA
:10333000704770B50446006800250169C9438907D4
:1033400015D4C168C943890711D4EA1E026101215D
:103350002177206880698007204602D0FFF7E8FFC8
:1033600004E000F0DBF8204600F09AF925772068A9
:103370000169C943490717D4C168C943490713D430
:1033800002216FF00402026121772068806910F445
:10339000407F204602D0FFF7CBFF04E000F0BEF8EC
:1033A000204600F07DF9257720680169C9430907A7
:1033B00016D4C168C943090712D404216FF008026A
:1033C000026121772068C0698007204602D0FFF79C
:1033D000AFFF04E000F0A2F8204600F061F9257785
:1033E00020680169C943C90617D4C168C943C90621
:1033F00013D408216FF01002026121772068C069A0
:1034000010F4407F204602D0FFF792FF04E000F066
:1034100085F8204600F044F9257720680169C94302
:10342000C90708D1C168C943C90704D1891E016110
:10343000204600F0FBF920680169C943090609D458
:10344000C168C943090605D46FF0800101612046B7
:10345000FFF7ACFD20680169C943C90509D4C168FB
:10346000C943090605D46FF4807101612046FFF756
:103470009CFD20680169C943490609D4C168C94354
:10348000490605D46FF040010161204600F0D8F9EB
:1034900020680169C94389060BD4C168C9438906FC
:1034A00007D46FF0200101612046BDE87040FFF7AE
:1034B0007EBD70BD10B586B0044614216846FDF788
:1034C00047FA1349206888421FD11248016841F029
:1034D00010010160006800F0100005900D481030E8
:1034E000016841F00101016000680222032300F03D
:1034F00001000590012081020091CDE90120CDE974
:10350000033005486946FEF719F806B010BD000003
:1035100000000140E044025800100258704770B5A6
:10352000044690F83C000D4601280BD0012084F899
:103530003C000C2A45D007DC5AB1042A1BD0082ACB
:1035400078D12CE0022070BD102A4ED0142A71D1FF
:103550005DE0206800F08EFD2068816941F008017F
:1035600081612068816921F00401816120682A69F4
:103570008169114311E0206800F0D0FD2068816965
:1035800041F4006181612068816921F48061816179
:1035900020682969826942EA012181614AE0206844
:1035A00000F008FE2068C16941F00801C16120688F
:1035B000C16921F00401C16120682A69C169114310
:1035C00011E0206800F03CFE2068C16941F4006110
:1035D000C1612068C16921F48061C16120682969E5
:1035E000C26942EA0121C16124E0206800F05EFE68
:1035F0002068416D41F0080141652068416D21F06E
:103600000401416520682A69416D114311E0206879
:1036100000F082FE2068416D41F400614165206840
:10362000416D21F48061416520682969426D42EA5B
:1036300001214165002084F83C0070BD10B50400F4
:1036400003D094F83D0010B107E0012010BD002028
:1036500084F83C00204600F022F8022084F83D0067
:103660002068211D00F076FC012084F8480084F8D1
:103670003E0084F83F0084F8400084F8410084F85C
:10368000420084F8430084F8440084F8450084F83C
:10369000460084F8470084F83D00002010BD7047C4
:1036A0007047000010B504464FF0020269B10429CA
:1036B00012D0082917D00C291CD0102921D094F839
:1036C0004300012824D0012010BD94F83E000128B9
:1036D000F9D184F83E201DE094F83F000128F2D192
:1036E00084F83F2016E094F840000128EBD184F8DC
:1036F00040200FE094F841000128E4D184F84120F3
:1037000008E094F842000128DDD184F8422001E06D
:1037100084F843200122206800F07EFC11492068D3
:1037200088420BD01049884208D01049884205D001
:103730000F49884202D00F49884203D1416C41F4BD
:103740000041416420680C4A81681140062906D076
:10375000B1F5803F03D0016841F001010160002014
:1037600010BD000000000140000401400040014085
:1037700000440140004801400700010030B500222C
:10378000044600680D4600F047FC41F21111224B3F
:1037900020688A1098420BD0204B984208D0204BCA
:1037A000984205D01F4B984202D01F4B984209D136
:1037B000036A0B4206D1036A134203D1436C23F41C
:1037C000004343642068036A0B4206D1016A114238
:1037D00003D1016821F0010101604FF001005DB1EA
:1037E000042D0CD0082D0DD00C2D0ED0102D0FD087
:1037F00084F84300002030BD84F83E00FAE784F8E6
:103800003F00F7E784F84000F4E784F84100F1E76F
:1038100084F84200EEE7000000000140000401408F
:103820000040014000440140004801400068034955
:10383000884201D1FDF7B0BF70470000000C004086
:10384000704770B504001BD02420C4F88000002508
:103850002068016821F0010101602068056020688E
:10386000456020688560204600F042F8C4F8885022
:10387000C4F88050C4F88450002084F87C5070BD97
:10388000012070BD704710B5040003D0D4F880004B
:1038900010B107E0012010BD002084F87C00204614
:1038A00000F052F82420C4F880002068016821F05C
:1038B00001010160204600F08DFE0128EBD0A06AD6
:1038C00010B1204600F08EFD2068416821F490413F
:1038D00041602068816821F02A01816020680168C8
:1038E00041F0010101602046BDE8104000F0DEBD5E
:1038F00010B5104A01681048914206D10F490A6874
:1039000022F008020A60C0210EE00D4A91420FD158
:103910000A490C390A6822F400220A604FF48071C7
:10392000FDF736FD07480121BDE81040FDF730BD29
:1039300010BD0000000C005800040258F444025866
:10394000004C0040000002582DE9F04186B00446CA
:1039500014216846FCF7FCFF206802262C4A01254A
:103960002A490324DFF8AC8090421AD1274814304A
:10397000026842F008020260006800F0080005904A
:10398000086840F00100086008686946CDE9025403
:1039900000F00100059060020494CDE90006404665
:1039A0002EE01D4A90422DD118480830026842F49A
:1039B00000220260006800F400200590086840F4CE
:1039C00080700860086800F480700590086840F016
:1039D0000100086008680827CDE9025400F00100E2
:1039E0000590B8016946CDE900060C480497FDF73B
:1039F000A5FDCDE90056CDE902546946404604973D
:103A0000FDF79CFD06B0BDE8F0810000E0440258DF
:103A1000000C005800000258004C004000200258E2
:103A200070B50446D0F8800020283FD181B37AB326
:103A300094F87C00012839D0A4F85420A4F856202A
:103A40000025606F01232165212184F87C30C4F8B2
:103A50008850C4F88010E8B115491346C163616FFE
:103A600014480864616F1448C864606F0565206875
:103A7000666F00F12802216D3046FDF729FB48B141
:103A80001021C4F88810202084F87C50C4F88000ED
:103A9000012070BD21684020086284F87C502068B5
:103AA000816841F080018160002070BD022070BDFE
:103AB00059450008874500080B45000870477047C6
:103AC00010B509F0C7F903480CF056FFBDE81040E7
:103AD00009F0DEB9E40D0024704700002DE9F0473D
:103AE000454D044689464FF0000A2868C0438007C8
:103AF0000AD0414E283E306820F080603060FDF7EB
:103B000045FE0746B04608E00120BDE8F08700BF4B
:103B1000FDF73CFEC01B022867D8D8F80000000162
:103B2000F6D4206829684FF4FE0721F47C313E0268
:103B300041EA00302860207AA389B4F804C040022A
:103B40002D4D2D495B1E227CACF1010C1035091D59
:103B5000A0F5007080B2521ECCF3080C07EA0343B4
:103B600040EA0C00184306EA026210432860086825
:103B7000626920F0C000104308600A68A06922F062
:103B8000200202430A60281D0A6822F010020A601F
:103B900002684FF6F873E4699A4342EAC40202608D
:103BA0000868B9F1000F40F010020A6011D00868EF
:103BB000B9F1010F11D040F400100860D8F80000EE
:103BC000444640F08060C8F80000FDF7DFFD054680
:103BD0000DE0086840F40020EFE740F48010ECE7C7
:103BE000FDF7D4FD401B022801D903208DE7206892
:103BF0000001F5D5504688E7284402582DE9F047E2
:103C0000454D044689464FF0000A2868C0438007A6
:103C10000AD0414E283E306820F080503060FDF7D9
:103C2000B5FD0746B04608E00120BDE8F08700BFBB
:103C3000FDF7ACFDC01B022867D8D8F80000800053
:103C4000F6D4208829684FF4FE0721F07C713E02EB
:103C500041EA00502860207AA389B4F804C04002E9
:103C60002D4D2D495B1E227CACF1010C1835091D30
:103C7000A0F5007080B2521ECCF3080C07EA034393
:103C800040EA0C00184306EA026210432860086804
:103C9000626920F44060104308600A68A06922F459
:103CA000007202430A60281D0A6822F480720A60CA
:103CB00002684FF6F873E4699A4342EAC40202606C
:103CC0000868B9F1000F40F480720A6011D00868EA
:103CD000B9F1010F11D040F080700860D8F80000F1
:103CE000444640F08050C8F80000FDF74FFD0546FF
:103CF0000DE0086840F48000EFE740F40000ECE7D6
:103D0000FDF744FD401B022801D903208DE7206800
:103D10008000F5D5504688E728440258704710B512
:103D200009F098F8FDF738FD0BF062FCBDE8104093
:103D300009F0AEB82DE9F041CCB04C212FA8FCF72A
:103D400007FE202142A8FCF703FEBC216846FCF7D1
:103D5000FFFD0220FDF7EEFD3E4800243E490268CB
:103D600042F44042026002680A6842F001020A60BE
:103D7000096801F001014A9101688904FCD5FDF749
:103D80000BFEFDF7FDFC3549344B483B0A6801202A
:103D900002250526C02722F018020A60196825228C
:103DA0004FF0080821F0030C01040CF1020CC3F8D9
:103DB00000C0CDE9301039A92F92389535902FA841
:103DC00081E8E0003C953D953E95CDE93F844194E6
:103DD000FEF748FE032340203F22CDE942230201A3
:103DE0004494CDE945800421CDE94702499042A899
:103DF000FEF7B0FB1A490420CDE900160297802196
:103E0000CDE9030514220595CDE90614CDE90C2072
:103E100008AA0B954302810282E8D000CDE90E3456
:103E2000C004129413944213109411941D9417918A
:103E30002494259428942C9221906846FDF72CFF19
:103E4000EA0400201101FEF7C3FDFDF79DFD4CB013
:103E5000BDE8F081184802582C04005870440258FC
:103E600016104D032E48F0B52E4A016841F470013A
:103E70000160106800F00F00072804D2106820F0DD
:103E80000F00C01D106028490020274C10340B681B
:103E9000264D43F001030B6020600B682B400B6044
:103EA000136803F00F03072B04D9136823F00F03E3
:103EB000DB1D13601C4C1E4A18341E4B261D371D7B
:103EC0002060194C1C4D28343060261D3860371D89
:103ED00023603B1D35601C1D3A60251D2E1D18609A
:103EE000331D22602860326018600A680E4B134C44
:103EF00022F4802260330A60186020686FF30F009C
:103F0000B0F1005F03D20E490120C1F8080143F26D
:103F1000D2000C49024B4A03803B08601A60F0BD96
:103F200088ED00E000200052004402587FEDF6EAE0
:103F300080020101000202020000FF010010005C8B
:103F400000800051004000520148FFF7F2B9000024
:103F5000E00300242DE9F047274B4FF0804A274D1E
:103F600002689842264E274F274C09D0504507D06B
:103F7000A84205D0B04203D0B84201D0A04205D13A
:103F8000D1F804C022F070024CEA0202DFF87CC0D3
:103F9000DFF87C809842DFF87C900FD050450DD040
:103FA000A8420BD0B04209D0B84207D0A04205D0F9
:103FB000604503D0404501D0484503D1CD6822F487
:103FC00040722A434D6922F080022A4302609842DF
:103FD0008A68C2620A68826207D0A04205D0604542
:103FE00003D0404501D0484501D109690163012151
:103FF0004161BDE8F087000000000140000400407E
:1040000000080040000C0040000401400040014056
:10401000004401400048014010B5046A012301F04A
:104020001F018B409C4304628A40016A1143016274
:1040300010BD10B5046A042301F01F018B409C439E
:1040400004628A40016A1143016210BD42EA032200
:1040500083680A4323F47F410A438260704700006B
:10406000034B82681A400A4342F00701816070479F
:104070008FFFCFFF2DE9F04F026ADFF88880DFF86D
:10408000889022F00102DFF884A0DFF884B0214F8D
:104090000262DFF884C0066A4268836926F002067D
:1040A0000D68B8428C6803EA0C0323F0030344EA6A
:1040B000060445EA030507D0404505D0484503D02E
:1040C000504501D0584505D1CB6824F0080423435E
:1040D00023F00404B84207D0404505D0484503D03A
:1040E000504501D0584505D122F44076D1E905323A
:1040F00033431A4342608561496841630462BDE805
:10410000F08F0000000401400040014000440140E5
:1041100000480140000001408FFFFEFFF0B5026A39
:104120001E4E1F4C22F01002DFF878E00262056A92
:104130004368826925F02005D1F808C0A0420F68C5
:1041400002EA060222F4407245EA0C1542EA07220E
:1041500001D0704506D1CE6825F0800545EA0615E8
:1041600025F04005A0420AD0704508D00E4CA04270
:1041700005D00E4CA04202D00D4CA04207D1D1E98F
:10418000054623F4406343EA840343EA860343601D
:104190008261496881630562F0BD0000FF8FFFFE08
:1041A0000000014000040140004001400044014083
:1041B00000480140F0B5026A1C4D1D4E22F4807289
:1041C000A8420262026A4368C76922F40072D1F809
:1041D00008C00C6827F0730742EA0C2244EA07047F
:1041E00001D0B04206D1CF6822F4006242EA072231
:1041F00022F48062A8420AD0B04208D00D4DA842F5
:1042000005D00D4DA84202D00C4DA84207D1D1E9EE
:10421000055623F4405343EA051343EA061343606B
:10422000C4614968C1630262F0BD00000000014042
:1042300000040140004001400044014000480140AA
:1042400070B5026A144B22F4805202629842036AEB
:104250004268C46923F400538E680D6824F4E64470
:1042600043EA063344EA05240BD00C4DA84208D09B
:104270000B4DA84205D00B4DA84202D00A4DA842D2
:1042800004D14D6922F4804242EA85124260C46141
:1042900049680164036270BD0000014000040140F0
:1042A000004001400044014000480140F0B5026A6E
:1042B00022F480320262134F056A4268446D25F48D
:1042C00000350E89B8420B6824F0700445EA0645B3
:1042D00043EA04030BD00C4CA04208D00B4CA04284
:1042E00005D00B4CA04202D00A4CA04204D14C692C
:1042F00022F4803242EA04224260436549688165C3
:104300000562F0BD00000140000401400040014092
:104310000044014000480140F0B5026A22F48012D6
:104320000262134F046A4268436D24F400140E893C
:10433000B8420D6823F4E04344EA065443EA0523F7
:104340000BD00C4DA84208D00B4DA84205D00B4D08
:10435000A84202D00A4DA84204D14D6922F400328D
:1043600042EA8522426043654968C1650462F0BD46
:1043700000000140000401400040014000440140B1
:104380000048014010B5036A046A23F00A0324F0D0
:104390000104046284690B4324F0F00141EA021134
:1043A0008161036210BD10B5036A23F0100303623C
:1043B0008369046A23F4704324F0A00443EA0232C0
:1043C000826144EA0111016210BD000010B508F0DD
:1043D00041FD03480CF0D0FABDE8104008F058BD8C
:1043E000F40C002490F82810C90706D00168C36AAD
:1043F0004A6822F400321A434A6090F8281089076C
:1044000006D50168036B4A6822F480321A434A6079
:1044100090F82810490706D50168436B4A6822F4D2
:1044200080221A434A6090F82810090706D50168CF
:10443000836B4A6822F400421A434A6090F82810BD
:10444000C90606D50168C36B8A6822F480521A43F4
:104450008A6090F82810890606D50168036C8A687E
:1044600022F400521A438A6090F82810490611D5A8
:104470000168436C4A6822F480121A434A60416C16
:10448000B1F5801F06D10168836C4A6822F4C0022E
:104490001A434A6090F82810090606D50168C26CD4
:1044A000486820F40020104348607047F8B50026A3
:1044B0000446C0F88860FDF769F9054620686FF08A
:1044C0007E470068000708D500222B464FF40011F4
:1044D0002046009700F056FA60B92068006840074F
:1044E0000AD500222B464FF480012046009700F0A9
:1044F00049FA08B10320F8BD2020C4F8800084F8F0
:104500007C60C4F884000020F8BD70B5846B002581
:104510002168D4F88000D4F884608968090606D53B
:10452000212804D1A4F85650204600F045F8206810
:104530008068400606D5222E04D1A4F85E5020469D
:1045400000F026F8D4F8880040F01000C4F8880085
:104550002046FFF797F970BD10B5C169806BB1F5C2
:10456000807F0DD00021A0F8561001688A6822F0E3
:1045700080028A600068016841F04001016010BD5E
:10458000FFF79CFA10BD10B5806BFFF798FA10BDCD
:1045900030B501682023074D00240A6822F4907288
:1045A0000A6001688A682A408A60C0F88430C4665C
:1045B00030BD0000FEFFFFEF016820220B6823F0F2
:1045C000C0030B6001688B6823F400038B60C0F8A4
:1045D000802070472DE9F04304468068D94F87B0AA
:1045E0002268D4E90465E369616E304316681D43AF
:1045F0002843D54B002501433E400E4316602068FA
:10460000E268416821F44051114341602268A16988
:104610009A4201D0206A01439668DFF830C3CC4F3C
:10462000CC4806EA0C060E4396602168666ACA6AA0
:1046300022F00F023243CA622268BA420ED10068E9
:1046400000F03800182873D047DCB8B3082879D0B8
:1046500010286FD178E028287ED17BE0BE498A42BD
:1046600009D1006800F00700062875D2DFE800F0E5
:10467000546A6C6E7072B9498A4209D1006800F0C0
:104680000700062868D2DFE800F0475D5F616365D8
:10469000B3498A4209D1006800F0070006285BD2BE
:1046A000DFE800F03A5052545658AE498A420BD1D6
:1046B000006800F0070006284ED200E010E0DFE8B6
:1046C00000F02B4143454749A7498A420AD1006877
:1046D00000F03800182839D0B7DD2028BBD13CE0E5
:1046E00001203AE0A1498A4209D1006800F00700A0
:1046F000062831D2DFE800F01026282A2C2E9C490B
:104700008A420BD1006800F00700062824D2DFE8B7
:1047100000F003191B1D1F2100201EE09A421BD12F
:104720008C48001D006800F00700062814D202E043
:104730000CE007E010E0DFE800F0030507090B0DCF
:1047400002200AE0042008E0082006E0102004E02F
:10475000202002E0402000E080208649DFF8188217
:104760009A42864A4FF400434FEA21174FF0000661
:104770004ED110281AD006DC022809D004280BD00C
:1047800008287DD10DE020283ED0402878D13DE09A
:10479000FDF72CF9014610E06846FDF739F901995B
:1047A0000BE003A8FDF7D6F9049906E0106880062F
:1047B00004D51068C0F3C100C140C1B3606A676826
:1047C00038F8102007EB4703B1FBF2F0834257D8CB
:1047D000B0EB073F54D8002308461946FBF794FE78
:1047E0000902020241EA106170084FEA370010180E
:1047F0003A4671410023FBF787FE614AA0F54071FC
:1048000091423DD821684CE03946D7E71946D5E7B3
:10481000D4F81CC04FF6EF799C4552D108281AD025
:1048200006DC60B101280DD0042829D10EE039E062
:10483000102815D0202840D040287CD13FE0FEF73A
:1048400007F801E0FEF716F8014610E06846FDF7AC
:10485000DFF801990BE003A8FDF77CF9049906E065
:104860001068800604D51068C0F3C100C140C9B10A
:10487000636A606838F81330B1FBF3F1490000E077
:1048800059E001EB5001B1FBF0F080B2A0F1100152
:10489000494550D84FF6F0732168C0F342021840E2
:1048A0001043C8600120A4F86A00A4F868002846F4
:1048B000E666266707B0BDE8F0833946D8E71946B3
:1048C000D6E7082819D005DC58B101280CD00428F7
:1048D00031D10DE0102815D020282ED040282AD123
:1048E0002DE0FDF7B5FF01E0FDF7C4FF014610E044
:1048F0006846FDF78DF801990BE003A8FDF72AF94A
:10490000049906E01068800605D51068C0F3C10060
:10491000C1400029C6D0636A606838F81330B1FB23
:10492000F3F101EB5001B1FBF0F080B2A0F1100106
:1049300049457FF667AF0125B4E73946EBE71946ED
:10494000E9E70000F369FFCF000C0058FFF4FF1106
:104950000010014054440258004400400048004008
:10496000004C00400050004000140140007800401E
:10497000007C00400090D0030A0C0108004402585B
:10498000FFFC0F002DE9F0479A4617460E460446F5
:10499000089D4FF000094FF0200839E0681C37D01F
:1049A000FCF7F4FEA0EB0A00A84222D80DB3206861
:1049B000016849072CD5C069C043000528D4236885
:1049C0004FF40061196221680B6823F4D0730B6007
:1049D00021688B6823F001038B60C4F88080C4F8E1
:1049E0008480C4F8888000BF032084F87C90BDE8F0
:1049F000F08721680B6823F4D0730B6021688B6803
:104A000023F001038B60C4F88080C4F88480EBE756
:104A10002068C06936EA000004D00020B842BDD04A
:104A20000020E4E70120F9E7FEE7090700284FEA44
:104A3000116104DB00F1E02080F80014704700F001
:104A40000F0000F1E02080F8141D704710B50446F7
:104A500005488068FBF798FC0449401E51F8301067
:104A60002060A1F11C0010BDD400002440080024E7
:104A700010B52F210446FBF751FE08B1401C10BDB4
:104A8000204610BD2DE9F04F060017468BB08B462F
:104A90004FF0000405D1264926A04FF49B7207F081
:104AA00081FA3FB9224924A040F2371207F07AFA7E
:104AB00000E0641C305D202803D0092801D05C454B
:104AC000F7D34FF0FF3984B31E4804F1060ADFF82C
:104AD0007080056811E0286806221BA1FBF748FEDC
:104AE00050B9286822463146801DFBF741FE18B9AF
:104AF000296811F80A0028B10C35D8F80000854261
:104B0000E9D313E0AC6884B128216846FBF720FFA5
:104B10006A465946304606F0DDFD30B16946A04789
:104B2000386000200BB0BDE8F08FFFE74846F9E79A
:104B3000D8110108636D6400726574700000000094
:104B4000200100241C0100245F5F636D645F00008E
:104B500070B50500144604D10849372208A007F0B3
:104B600021FA3CB1A86C62882188036828469847DE
:104B7000002070BD4FF0FF3070BD0000041601082A
:104B800070696E20213D2052545F4E554C4C000000
:104B900070B504001E46154604D10949182209A023
:104BA00007F000FA0DB1042E01D0002070BDA06CFA
:104BB00029888268204690476880304670BD000092
:104BC000EF15010870696E20213D2052545F4E554B
:104BD0004C4C000070B504001E46154604D109492E
:104BE000272209A007F0DEF90DB1042E01D0002024
:104BF00070BDA06C6A882988436820469847304673
:104C000070BD0000F915010870696E20213D205229
:104C1000545F4E554C4C000010B5836C1C6800234B
:104C20000CB1A0470346184610BD7FB51D4614467B
:104C300000230193029303930091816C0B6843B1AD
:104C400083216A46984710B1002004B070BD0298D5
:104C500020602846F9E77FB51E4604460023154626
:104C60000193029303930091806C036883B18321C5
:104C70006A462046984740B92868822102906A46D1
:104C8000A06C03682046984710B1002004B070BDA6
:104C90003046FBE710B5040004D111494F2211A0A2
:104CA00007F080F9206B0178232906D1616A8142DF
:104CB00003D9626B02448A4208D20FA0214608F051
:104CC00041F9FBF787FB0028FDD110BD2030814260
:104CD000FBD82146BDE810400EA008F033B9000013
:104CE0001110010874687265616420213D205254DE
:104CF0005F4E554C4C0000007468726561643A2543
:104D00007320737461636B206F766572666C6F7766
:104D10000A0000007761726E696E673A2025732081
:104D2000737461636B20697320636C6F73652074A7
:104D30006F20656E64206F6620737461636B206101
:104D40006464726573732E0A000000002DE9FC4153
:104D50001F4604461C30DDE90831DDE90A65406084
:104D600000601846C4E90A27C4E90C310A46232129
:104D700008F025FD04F128000FC81A44154B121F36
:104D800007F0ECFF202E606204D31349AF2213A07A
:104D900007F008F984F83E60002084F83D6023465F
:104DA000E564194620642565A06384F83C00C4F8D6
:104DB0008800C4F88C00124A0090019004F154005D
:104DC0000AF052FD0F48816809B12046884700204B
:104DD000BDE8FC8171F000085F1001087072696F16
:104DE00072697479203C2052545F544852454144C2
:104DF0005F5052494F524954595F4D41580000008D
:104E0000FDF40008EC00002430B50025039C24F0DC
:104E100001044474243080E82E00083840600060AB
:104E200030BD1C3008F0E9B82DE9F0470600154602
:104E30000F4605D11E494FF486721E4807F0B2F89E
:104E4000746DA8464FF0000A64BB19494FF488728C
:104E500019A007F0A7F825E0FBF7BCFAA2880146E5
:104E6000E088904201D1A26882B12368421C92B2CC
:104E700013F80090E280306DC0F38F20824201D39E
:104E8000A4F806A0A068012804D005E00846FBF7B6
:104E9000A5FA09E0C4F808A00846FBF79FFA6D1EC2
:104EA00007F8019B002DD7D1A8EB0500BDE8F087DE
:104EB0009716010804EB000872785F6669666F2038
:104EC000213D2052545F4E554C4C00002DE9F047D7
:104ED000050014460E4605D11A494FF49E721A4831
:104EE00007F060F8D5F8588027464FF0FF395FEAA1
:104EF00008001DD113494FF4A07214A007F052F816
:104F000016E030780A280AD195F82000400606D528
:104F1000A86C0D21826828469047401C0DD0A86CD3
:104F20003178826828469047401C06D0641E761C63
:104F3000002CE6D13846BDE8F0874946404607F0E8
:104F4000C7F8F5E7A616010804EB000874782021DD
:104F50003D2052545F4E554C4C00000070B5054644
:104F6000FBF738FAD5F88810044609B12846884777
:104F70002046BDE87040FBF731BA0000012201462F
:104F80005FF0000002FA00F38B4204D0401C20289E
:104F9000F8DB4FF0FF3070471BA010B507F0D2FFD1
:104FA0001C4C21781CA007F0CDFF2078C00702D050
:104FB0001FA007F0C7FF2078800702D51FA007F0C9
:104FC000C1FF2078400702D51FA007F0BBFF207863
:104FD000000702D520A007F0B5FF2078C00602D553
:104FE00020A007F0AFFF2078000607D509480F3052
:104FF00001681EA0BDE8104007F0A4BFBDE8104046
:105000001EA007F09FBF0000627573206661756C7B
:10501000743A0A0029ED00E05343425F434653527D
:105020005F424653523A3078253032582000000013
:10503000494255534552522000000000505245430A
:105040004953455252200000494D5052454349535F
:105050004552522000000000554E53544B455252C9
:105060002000000053544B45525220005343422D20
:105070003E424641523A253038580A000A000000A4
:1050800010B50022044696B001460F4801F03EFEDE
:10509000002805DA0DA0214607F054FF16B010BD18
:1050A00054216846FBF754FC07485022694601F03A
:1050B0008DFE20B109A0694607F044FFF0E70248E1
:1050C00001F0EEFDEAE70000380B00244F70656E3A
:1050D000202573206661696C65640A0025730000F1
:1050E0002DE9F041040024D0FBF723FB4FF4807737
:1050F0004FF0FF36B8426FF01A0521D80020214644
:1051000002F0B6F904001BD002F028F8204606F0A1
:105110007BFBC8B100F04CF90F483A462146FBF73B
:105120003EFC204607F070FB02F02AFC0020BDE8A0
:10513000F08102F013F8084908A007F003FFF3E735
:10514000284609F02FFD04E0204607F05DFB02F041
:1051500017FC3046EBE700004001002425730A00ED
:10516000016809B1012904D1C068401C01D00020A8
:1051700070474FF0FF30704770B504460022501E54
:10518000E2702063204606F05DF808B1042070BD8F
:1051900004F2322004F048FF054694F834004AF641
:1051A0005526EB2803D0E92801D0E8282ED1B542B6
:1051B00007D1082218A104F1860005F05BFE002843
:1051C000E5D004F13F0004F02FFF411E08421DD13D
:1051D0004FF40071884219D3884217D894F84100DF
:1051E000A0B1411E084211D194F84400012801D019
:1051F00002280BD104F1450004F016FF30B104F190
:105200004A0004F011FF08B1002070BDB54201D181
:10521000022070BD032070BD46415433322020204F
:105220000000000002A010B507F08CFE002010BDA9
:105230001B5B324A1B5B4800826A490A006840894E
:10524000B1FBF0F0121D02CA19B1884203D3401A13
:10525000F8E7002070471168084470471DA010B59A
:1052600007F070FE1FA007F06DFE25A007F06AFE94
:1052700018A007F067FEFDF70FFB014622A007F01C
:1052800061FE1FA007F05EFE12A007F05BFEFDF7B7
:10529000BDFA014623A007F055FE19A007F052FE03
:1052A0000CA007F04FFEFDF7D3FA014624A007F04B
:1052B00049FE13A007F046FE06A007F043FEFDF7E7
:1052C000D9FA014625A007F03DFE0DA007F03AFEF1
:1052D000002010BD1B5B33326D5B492F5359535D6A
:1052E0002000000053797374656D20436C6F636B0D
:1052F00020696E666F726D6174696F6E3A2000008E
:105300001B5B306D0A000000535953434C4B5F4602
:1053100072657175656E6379203D20256420487A39
:105320000000000048434C4B5F4672657175656E26
:1053300063792020203D20256420487A0000000069
:1053400050434C4B315F4672657175656E637920D1
:10535000203D20256420487A0000000050434C4B3B
:10536000325F4672657175656E637920203D202538
:105370006420487A0000000070B504F085F804004D
:105380004FF0FF360CD001F08BFC0546204604F0B0
:105390003FF9002D07DA284609F004FC304670BDBD
:1053A0006FF00F00F8E7204604F032F9002070BDDE
:1053B0002DE9F0410646006804F066F804004FF05D
:1053C000FF3714D001F06CFC0546204604F020F9AC
:1053D000204604F01DF9304607F016FA002D09DAD0
:1053E0004FEA050009F0DEFB3846BDE8F0816FF0BA
:1053F0000F00F7E70020F8E78269891E921E8A42B3
:1054000001D800207047C26A408900FB0120704724
:1054100070B501280E46054601D001240BE008A016
:1054200007F090FD0CA007F08DFD06E056F8240073
:10543000FFF726FE641CAC42F8DB002070BD0000C4
:1054400055736167653A20636174205B46494C453A
:105450005D2E2E2E0A000000436F6E636174656E30
:105460006174652046494C452873290A00000000F4
:1054700010B501280C4602D0022803D00AE00649E4
:1054800006A005E06068FFF72BFE18B1616804A074
:1054900007F058FD002010BD4001002425730A00CC
:1054A0004E6F2073756368206469726563746F72F0
:1054B000793A2025730A0000032810B506D007A00A
:1054C00007F040FD0BA007F03DFD04E0D1E901022B
:1054D000114600F08FFA002010BD0000557361677F
:1054E000653A20637020534F55524345204445533D
:1054F000540A0000436F707920534F5552434520A2
:10550000746F20444553542E0A00000010B5022841
:105510000C4601D00AA00AE060680AA1FBF76AFA0B
:1055200048B1606809A1FBF765FA20B1606800F036
:1055300093FD002010BD06A007F004FDF9E7000070
:105540002F0000002D2D68656C7000002D68000094
:105550006466205B706174685D0A000070B50228A3
:105560000C4606D0032807D010A007F0EBFC002063
:1055700070BD496816A015E0A068002240F24241C3
:1055800006F01CF905000BD46068FBF7D2F86168DF
:10559000024628460BF0F6FA2846FFF7EDFEE6E74E
:1055A000A1680CA007F0CEFCE1E70000557361672D
:1055B000653A206563686F2022737472696E672292
:1055C000205B66696C656E616D655D0A00000000B8
:1055D00025730A006F70656E2066696C653A2573E5
:1055E000206661696C6564210A00000010B504F052
:1055F000EDFF002010BD0000012810B504D0486860
:1056000005F08CFB002010BD0048F9E740010024A4
:10561000012810B505D04868002105F0B7FC00202E
:1056200010BD03A007F08EFC0AA007F08BFCF6E784
:1056300055736167653A206D6B646972205B4F50EA
:1056400054494F4E5D204449524543544F52590AE4
:105650000000000043726561746520746865204431
:1056600049524543544F52592C206966207468654D
:105670007920646F206E6F7420616C72656164794B
:105680002065786973742E0A0000000010B50228A6
:105690000C460DA205D0042806D00CA007F052FC41
:1056A00010E04968104606E0606810A1FBF7A2F917
:1056B00040B9D4E9020101F06BFD010002D00CA059
:1056C00007F040FC002010BD656C6D0055736167EC
:1056D000653A206D6B6673205B2D7420747970655C
:1056E0005D206465766963650A0000002D74000022
:1056F0006D6B6673206661696C65642C20726573DE
:10570000756C743D25640A0038B503280C4606D034
:1057100027A007F017FC2CA007F014FC46E0D4E902
:10572000011237A007F00EFCA06800224FF4803170
:1057300006F044F8002821DBFFF71EFE4FF48070CE
:1057400007F064FC050005D0606809F0C3FA6168E1
:10575000084409E02DA007F0F5FB6FF0040038BD08
:1057600002782F2A02D0401E8142F9D10090FF21F9
:10577000A3682AA2284609F07DFA0CE00022A0685E
:10578000114606F01BF8002804DBFFF7F5FDA068C2
:105790000BF050F9A5686068294606F09BFB2DB117
:1057A000A068A84202D0284607F02EF8002038BD95
:1057B00055736167653A206D7620534F55524345C6
:1057C00020444553540A000052656E616D652053B4
:1057D0004F5552434520746F20444553542C206F3D
:1057E00072206D6F766520534F55524345287329BB
:1057F00020746F204449524543544F52592E0A0099
:105800002573203D3E2025730A0000006F7574202B
:105810006F66206D656D6F72790A000025732F2504
:105820007300000010B505F0F7F8002010BD00006F
:10583000034904A010B507F085FB002010BD00004F
:105840004001002425730A002DE9F0434FF00007C2
:105850000D460128064691B0B846B94604D06A689C
:1058600010782D2807D021E02EA007F06BFB35A083
:1058700007F068FB51E0002013E02D2910D06629C5
:1058800007D0722907D0762908D036A007F05AFB36
:1058900043E0012704E04FF0010801E04FF0010967
:1058A000401C115C0029E8D12D1D761E012432E038
:1058B00055F8240069460AF011FB08B12FB329E01E
:1058C000BDF8060041040DD5B8F1000F06D055F81B
:1058D00024004A46394602F091F91BE055F824109D
:1058E00026A015E0000415D555F824000BF0A2F809
:1058F00020B17FB955F8241029A009E0B9F1000FB3
:1059000008D055F824102BA002E055F824102DA043
:1059100007F018FB641CB442CADB11B00020BDE8DC
:10592000F083000055736167653A20726D206F70D7
:1059300074696F6E2873292046494C452E2E2E0A15
:105940000000000052656D6F76652028756E6C69E9
:105950006E6B29207468652046494C452873292EB2
:105960000A0000004572726F723A20426164206F33
:105970007074696F6E3A2025630A000063616E6E71
:105980006F742072656D6F766520272573273A2026
:1059900049732061206469726563746F72790A00CB
:1059A00063616E6E6F742072656D6F76652027255A
:1059B00073270A0072656D6F76656420272573274B
:1059C0000A00000063616E6E6F742072656D6F7601
:1059D0006520272573273A204E6F20737563682052
:1059E00066696C65206F72206469726563746F729A
:1059F000790A0000F0B591B00E460546694601F0FF
:105A00003DFA002805DA32A0294607F09BFA11B0CA
:105A1000F0BDBDF806000427B7EB103F01D101240B
:105A200000E002246946304601F028FA002809DB2C
:105A3000BDF80600B7EB103F02D144F0040401E0CA
:105A400044F00804E00703D0200701D526A02FE08A
:105A5000A0074FEA447014D500280DDA2846FFF756
:105A600007F80146304601F003FD04001FD001464F
:105A7000284600F0EBF816E03146284600F0E6F83C
:105A8000C5E7002817DA2846FEF7F2FF0146304640
:105A900001F0EEFC04000AD0002105F077FA21465F
:105AA000284600F03FF8204606F0AEFEAFE719A00A
:105AB00007F048FAABE714F00C0F03D10021304691
:105AC00005F064FA3146284600F02CF89FE7000004
:105AD000636F7079206661696C65642C2062616413
